:1000000000180002BD03000029040000413E00006A
:100010002904000029040000290400000000000059
:10002000000000000000000000000000112500009A
:100030002904000000000000B12500001526000082
:10004000F9A8000009A90000B9AC0000C9AC000083
:10005000D9AC0000E9AC0000F9AC000009AD00002B
:1000600029040000290400002904000029040000DC
:1000700029040000290400002904000029040000CC
:1000800019AD000029040000290400002904000023
:10009000A9A90000B9A90000290400002904000052
:1000A000290400002904000089AC000099AC00007C
:1000B000A9AC000029040000290400002904000064
:1000C000290400002904000029040000290400007C
:1000D000290400002904000029040000C9A9000027
:1000E0002904000029040000E9A90000F9A9000082
:1000F000290400002904000029040000D9A90000F7
:1001000039A9000049A9000059A9000069A9000007
:1001100079A9000029040000290400002904000036
:10012000290400002904000029040000290400001B
:100130002904000019A9000029A9000029040000D1
:10014000290400002904000099A9000089A90000E1
:1001500029040000290400002904000029040000EB
:1001600029040000290400002904000029040000DB
:1001700029040000290400002904000029040000CB
:1001800029040000290400002904000029040000BB
:1001900029040000290400002904000029040000AB
:1001A000290400002904000029040000290400009B
:1001B000290400002904000029040000290400008B
:1001C000290400002904000029040000290400007B
:1001D000290400002904000029040000290400006B
:1001E000290400002904000029040000290400005B
:1001F000290400002904000029040000290400004B
:10020000290400002904000029040000290400003A
:10021000290400002904000029040000290400002A
:10022000290400002904000029040000290400001A
:10023000290400002904000029040000290400000A
:1002400029040000290400002904000029040000FA
:1002500029040000290400002904000029040000EA
:1002600029040000290400002904000029040000DA
:1002700029040000290400002904000029040000CA
:1002800029040000290400002904000029040000BA
:1002900029040000290400002904000029040000AA
:1002A000290400002904000029040000290400009A
:1002B000290400002904000029040000290400008A
:1002C000290400002904000029040000290400007A
:1002D000290400002904000029040000290400006A
:1002E000290400002904000029040000290400005A
:1002F000290400002904000029040000290400004A
:100300002904000029040000290400002904000039
:100310002904000029040000290400002904000029
:1003200029040000FFFFFFFFF0B400EB4003DFF8FB
:10033000880000EBC30000F118063069F7687568A3
:10034000874232D3B368DC1B631E934214D37D19FA
:10035000D01900BF11F8013B05F8013B013A05D067
:1003600011F8013B05F8013B013AF3D1BFF35F8F70
:10037000F0600120F0BC7047C018904219D3781982
:10038000121B11F8013B00F8013B013CF9D1141C90
:1003900005D011F8013B05F8013B013AF9D1BFF353
:1003A0005F8FF4600120F0BC7047C01B01389042A1
:1003B000CDD20020F0BC7047DC92002072B64FF026
:1003C00000014FF000024FF000034FF000044FF027
:1003D00000054FF000064FF00007B846B946BA4690
:1003E000BB46BC460A480B4901600B4885460B4A90
:1003F000094C002301E013600432A242FBD30848F9
:1004000080470848804762B60EF00AFAFEE700000F
:1004100008ED00E0000000000018000200080002E3
:10042000A13E0000493E0000FFF7FEBF81F0004101
:1004300002E000BF83F0004330B54FEA41044FEAC9
:10044000430594EA050F08BF90EA020F1FBF54EA64
:10045000000C55EA020C7FEA645C7FEA655C00F000
:10046000E2804FEA5454D4EB5555B8BF6D420CDDD1
:100470002C4480EA020281EA030382EA000083EA54
:10048000010180EA020281EA0303362D88BF30BDF4
:1004900011F0004F4FEA01314FF4801C4CEA11314A
:1004A00002D0404261EB410113F0004F4FEA0333A9
:1004B0004CEA133302D0524263EB430394EA050F34
:1004C00000F0A780A4F10104D5F1200E0DDB02FAA3
:1004D0000EFC22FA05F2801841F1000103FA0EF237
:1004E000801843FA05F359410EE0A5F120050EF1FD
:1004F000200E012A03FA0EFC28BF4CF0020C43FA2E
:1005000005F3C01851EBE37101F0004507D54FF03A
:10051000000EDCF1000C7EEB00006EEB0101B1F58A
:10052000801F1BD3B1F5001F0CD349085FEA3000D0
:100530004FEA3C0C04F101044FEA445212F5800FDB
:1005400080F09A80BCF1004F08BF5FEA500C50F178
:10055000000041EB045141EA050130BD5FEA4C0C5B
:10056000404141EB0101013C28BFB1F5801FE9D2B8
:1005700091F0000F04BF01460020B1FA81F308BFDB
:100580002033A3F10B03B3F120020CDA0C3208DDA7
:1005900002F1140CC2F10C0201FA0CF021FA02F182
:1005A0000CE002F11402D8BFC2F1200C01FA02F1F2
:1005B00020FA0CFCDCBF41EA0C019040E41AA2BF17
:1005C00001EB0451294330BD6FEA04041F3C1CDADF
:1005D0000C340EDC04F11404C4F1200220FA04F0FF
:1005E00001FA02F340EA030021FA04F345EA0301A9
:1005F00030BDC4F10C04C4F1200220FA02F001FA6B
:1006000004F340EA0300294630BD21FA04F02946EC
:1006100030BD94F0000F83F4801306BF81F4801185
:100620000134013D4EE77FEA645C18BF7FEA655CF8
:1006300029D094EA050F08BF90EA020F05D054EACA
:10064000000C04BF1946104630BD91EA030F1EBFCF
:100650000021002030BD5FEA545C05D140004941D3
:1006600028BF41F0004130BD14F580043CBF01F5C6
:10067000801130BD01F0004545F0FE4141F47001AC
:100680004FF0000030BD7FEA645C1ABF1946104687
:100690007FEA655C1CBF0B46024650EA013406BF88
:1006A00052EA033591EA030F41F4002130BD00BF47
:1006B00090F0000F04BF0021704730B54FF4806404
:1006C00004F132044FF000054FF0000150E700BF85
:1006D00090F0000F04BF0021704730B54FF48064E4
:1006E00004F1320410F0004548BF40424FF00001D1
:1006F0003EE700BF42004FEAE2014FEA31014FEA14
:1007000002701FBF12F07F4393F07F4F81F0605162
:10071000704732F07F4208BF704793F07F4F04BFAD
:1007200041F40021704730B54FF4607401F000458A
:1007300021F000411CE700BF50EA010208BF7047EA
:1007400030B54FF000050AE050EA010208BF7047DB
:1007500030B511F0004502D5404261EB41014FF444
:10076000806404F132045FEA915C3FF4D8AE4FF04C
:1007700003025FEADC0C18BF03325FEADC0C18BF2F
:10078000033202EBDC02C2F1200300FA03FC20FA80
:1007900002F001FA03FE40EA0E0021FA02F11444CD
:1007A000BDE600BF70B54FF0FF0C4CF4E06C1CEAE6
:1007B00011541DBF1CEA135594EA0C0F95EA0C0F57
:1007C00000F0DEF82C4481EA030621EA4C5123EACA
:1007D0004C5350EA013518BF52EA033541F48011F9
:1007E00043F4801338D0A0FB02CE4FF00005E1FBAC
:1007F00002E506F00042E0FB03E54FF00006E1FBF6
:1008000003569CF0000F18BF4EF0010EA4F1FF0438
:10081000B6F5007F64F5407404D25FEA4E0E6D4178
:1008200046EB060642EAC62141EA55514FEAC52089
:1008300040EA5E504FEACE2EB4F1FD0C88BFBCF505
:10084000E06F1ED8BEF1004F08BF5FEA500E50F1B6
:10085000000041EB045170BD06F0004646EA01017C
:1008600040EA020081EA0301B4EB5C04C2BFD4EBAE
:100870000C0541EA045170BD41F480114FF0000EA7
:10088000013C00F3AB8014F1360FDEBF002001F015
:10089000004170BDC4F10004203C35DA0C341BDC8F
:1008A00004F11404C4F1200500FA05F320FA04F061
:1008B00001FA05F240EA020001F0004221F0004195
:1008C00010EBD37021FA04F642EB06015EEA430E08
:1008D00008BF20EAD37070BDC4F10C04C4F1200538
:1008E00000FA04F320FA05F001FA04F240EA0200EB
:1008F00001F0004110EBD37041F100015EEA430EBC
:1009000008BF20EAD37070BDC4F1200500FA05F2DB
:100910004EEA020E20FA04F301FA05F243EA02035A
:1009200021FA04F001F0004121FA04F220EA020069
:1009300000EBD3705EEA430E08BF20EAD37070BDAF
:1009400094F0000F0FD101F00046400041EB01018F
:1009500011F4801F08BF013CF7D041EA060195F071
:10096000000F18BF704703F00046520043EB03032B
:1009700013F4801F08BF013DF7D043EA0603704718
:1009800094EA0C0F0CEA135518BF95EA0C0F0CD023
:1009900050EA410618BF52EA4306D1D181EA030169
:1009A00001F000414FF0000070BD50EA410606BF63
:1009B0001046194652EA430619D094EA0C0F02D1A8
:1009C00050EA013613D195EA0C0F05D152EA0336ED
:1009D0001CBF104619460AD181EA030101F000410B
:1009E00041F0FE4141F470014FF0000070BD41F054
:1009F000FE4141F4780170BD70B54FF0FF0C4CF42E
:100A0000E06C1CEA11541DBF1CEA135594EA0C0F4C
:100A100095EA0C0F00F0A7F8A4EB050481EA030E99
:100A200052EA03354FEA013100F088804FEA033380
:100A30004FF0805545EA131343EA12634FEA02224E
:100A400045EA111545EA10654FEA00260EF000410F
:100A50009D4208BF964244F1FD0404F5407402D261
:100A60005B084FEA3202B61A65EB03055B084FEAF2
:100A700032024FF480104FF4002CB6EB020E75EBEF
:100A8000030E22BFB61A754640EA0C005B084FEA17
:100A90003202B6EB020E75EB030E22BFB61A754694
:100AA00040EA5C005B084FEA3202B6EB020E75EBDF
:100AB000030E22BFB61A754640EA9C005B084FEA57
:100AC0003202B6EB020E75EB030E22BFB61A754664
:100AD00040EADC0055EA060E18D04FEA051545EA53
:100AE00016754FEA06164FEAC30343EA52734FEAFC
:100AF000C2025FEA1C1CC0D111F4801F0BD141EA75
:100B000000014FF000004FF0004CB6E711F4801FD9
:100B100004BF01430020B4F1FD0C88BFBCF5E06FB9
:100B20003FF6AFAEB5EB030C04BFB6EB020C5FEAC9
:100B3000500C50F1000041EB045170BD0EF0004E1E
:100B40004EEA113114EB5C04C2BFD4EB0C0541EA50
:100B5000045170BD41F480114FF0000E013C90E64D
:100B600045EA060E8DE60CEA135594EA0C0F08BF11
:100B700095EA0C0F3FF43BAF94EA0C0F0AD150EA10
:100B800001347FF434AF95EA0C0F7FF425AF1046A3
:100B900019462CE795EA0C0F06D152EA03353FF4CB
:100BA000FDAE1046194622E750EA410618BF52EA48
:100BB00043067FF4C5AE50EA41047FF40DAF52EA1C
:100BC00043057FF4EBAE12E74FF0FF3C06E000BFB9
:100BD0004FF0010C02E000BF4FF0010C4DF804CDC6
:100BE0004FEA410C7FEA6C5C4FEA430C18BF7FEA86
:100BF0006C5C1BD001B050EA410C0CBF52EA430CB4
:100C000091EA030F02BF90EA020F0020704710F133
:100C1000000F91EA030F58BF994208BF90422CBFC2
:100C2000D8176FEAE37040F0010070474FEA410CBB
:100C30007FEA6C5C02D150EA013C07D14FEA430CD9
:100C40007FEA6C5CD6D152EA033CD3D05DF8040B4A
:100C5000704700BF8446104662468C46194663467C
:100C600000E000BF01B5FFF7B7FF002848BF10F153
:100C7000000F01BD4DF808EDFFF7F4FF0CBF012098
:100C800000205DF808FB00BF4DF808EDFFF7EAFF14
:100C900034BF012000205DF808FB00BF4DF808EDCF
:100CA000FFF7E0FF94BF012000205DF808FB00BFC4
:100CB0004DF808EDFFF7CEFF94BF012000205DF84E
:100CC00008FB00BF4DF808EDFFF7C4FF34BF01205B
:100CD00000205DF808FB00BF4FEA4102B2F1E0439B
:100CE00024BFB3F5001CDCF1FE5C0DD901F0004C13
:100CF0004FEAC0024CEA5070B2F1004F40EB830063
:100D000008BF20F00100704711F0804F21D113F18E
:100D10003872BCBF01F00040704741F480114FEAC7
:100D20005252C2F11802C2F1200C10FA0CF320FA50
:100D300002F018BF40F001004FEAC1234FEAD3236D
:100D400003FA0CFC40EA0C0023FA02F34FEA4303D7
:100D5000CCE77FEA625307D150EA01331EBF4FF060
:100D6000FE4040F44000704701F0004040F0FE407B
:100D700040F40000704700BF844641EA000313F0CE
:100D800003036DD1403A41D351F8043B40F8043B92
:100D900051F8043B40F8043B51F8043B40F8043B55
:100DA00051F8043B40F8043B51F8043B40F8043B45
:100DB00051F8043B40F8043B51F8043B40F8043B35
:100DC00051F8043B40F8043B51F8043B40F8043B25
:100DD00051F8043B40F8043B51F8043B40F8043B15
:100DE00051F8043B40F8043B51F8043B40F8043B05
:100DF00051F8043B40F8043B51F8043B40F8043BF5
:100E000051F8043B40F8043B403ABDD2303211D394
:100E100051F8043B40F8043B51F8043B40F8043BD4
:100E200051F8043B40F8043B51F8043B40F8043BC4
:100E3000103AEDD20C3205D351F8043B40F8043B94
:100E4000043AF9D2043208D0D2071CBF11F8013B92
:100E500000F8013B01D30B8803806046704700BF58
:100E6000082A13D38B078DD010F003038AD0C3F167
:100E70000403D21ADB071CBF11F8013B00F8013B49
:100E800080D331F8023B20F8023B7BE7043AD9D308
:100E9000013A11F8013B00F8013BF9D20B780370DD
:100EA0004B7843708B788370604670470000000079
:100EB0000000000000000000000000000000000032
:100EC000A2EB0300704700BF02780B78012A28BF0D
:100ED0009A42F5D16DE9044540EA0104CDE9026783
:100EE0006FF0000C4FEA447212B380EA010414F070
:100EF000070F6AD100F0070420F0070004F0030593
:100F000021F007014FEAC505F0E8042314F0040FAF
:100F1000F1E804670CFA05F462EA040266EA0406E2
:100F20000AD063EA0403624667EA0407664603E000
:100F3000F0E80423F1E8046782FA4CF582EA06043B
:100F4000A4FA8CF46CBB83FA4CF583EA0705A5FA86
:100F50008CF595B950E9022351E9026782FA4CF504
:100F600082EA0604A4FA8CF483FA4CF583EA0705B6
:100F7000A5FA8CF52543DBD09CB92DBAB5FA85F4DA
:100F800024F0070427FA04F1DDE9026723FA04F3E9
:100F900003F0FF0001F0FF01FDE80445A0EB0100B4
:100FA000704724BAB4FA84F424F0070426FA04F152
:100FB000DDE9026722FA04F202F0FF0001F0FF010E
:100FC000FDE80445A0EB0100704714F0030F3CD18D
:100FD00010F0030428D150F8082B51F8083B82FA8E
:100FE0004CF582EA0305A5FA8CF55DB950F8042C9E
:100FF00051F8043C82FA4CF582EA0305A5FA8CF517
:10100000002DE8D02DBAB5FA85F424F0070423FAB0
:1010100004F122FA04F202F0FF0001F0FF01FDE802
:101020000445A0EB010070474FEAC40420F0030020
:1010300050F8082B21F0030151F8083B0CFA04F496
:1010400062EA040263EA0403C9E710F003041AD059
:10105000A1EB040120F00300E40750F8042B06D0B4
:101060000FD28B785FFAA2F4E41A06D12BB1CB78B9
:101070005FFAB2F4E41A00D11BB920465DF8104BB8
:10108000704701F1040150F8042BCC0721F0030153
:1010900051F8043B48D824D222F07F4482FA4CF520
:1010A00094EA1325A5FA8CF50AD165B951F8043BE9
:1010B00084EA0204B4EB036F0ED150F8042BEBE783
:1010C0004FEA132355E035F07F454DD10878FDE810
:1010D0000445C0F1000070474FEA126203F0FF03BD
:1010E00047E002EA1C4482FA4CF594EA1345A5FA5B
:1010F0008CF50AD165B951F8043B84EA0204B4EBDB
:10110000034F0CD150F8042BEBE74FEA134330E0C8
:1011100015EA1C4528D10B884FEA124229E04FEA14
:10112000124203EA1C4324E002F0FF0482FA4CF569
:1011300094EA1365A5FA8CF50AD165B951F8043B18
:1011400084EA0204B4EB032F09D150F8042BEBE737
:101150004FEA13630DE015F0FF0F05D10B684FEA5E
:10116000122223F07F4304E04FF00000FDE8044525
:10117000704712BA1BBA82FA4CF482EA0304A4FA4A
:101180008CF5B5FA85F402FA04F203FA04F34FEA97
:101190001260FDE80445A0EB1360704700B583B012
:1011A00001F06AFD01900A2101A801F08DFEFAE725
:1011B00000B583B001F060FD0190022101A801F0AB
:1011C00083FEFAE700B583B001F056FD019009E017
:1011D0001B4B1B78DBB2022B1FD1194B1B78DBB2E8
:1011E000022B25D0642101A801F06EFE154B1B785F
:1011F000642B02D80133134A1370124B1B78142B43
:10120000E6D0104B1B78632BE7D90D4B1B78DBB274
:10121000022BE2D00DF09EFAE4E701200AF0D2FDA5
:101220009FED090A0AF0D6FD01200AF01DFDE8E74E
:101230000AF0C0FD0028D5D000200AF015FDD1E746
:10124000D00D0020D10D002000007A4400B583B0FD
:101250000DF048FA01F010FD0190052101A801F000
:1012600033FEFAE700B583B001F006FD01900121DD
:1012700001A801F029FE0BF03BF8F8E700B583B0B8
:101280000AF046FB0DF006F90AF00AFA0DF060F9D3
:1012900001F0F2FC01900A2101A801F015FE0AF00C
:1012A00005FAF8E700B583B001F0E6FC01900521EE
:1012B00001A801F009FE052101A801F005FE01F0D9
:1012C000DBFC0190052101A801F0FEFD02F018F8F9
:1012D0000AF0D6F9F6E700B583B00AF081FE01F016
:1012E000CBFC0190032101A801F0EEFD012101A832
:1012F00001F0EAFD09F094FD0BF0C4FFF6E74FF0B2
:10130000200383F31188BFF36F8FBFF34F8FFEE786
:1013100030B583B000F012F9002401940523009346
:1013200023464FF4C8722649264801F047FB019432
:101330000423009323464FF4C8722349234801F045
:101340003DFB01940A25009523464FF4167220496F
:10135000204801F033FB0194009523464FF4C872F6
:101360001D491E4801F02AFB0194009523464FF4C5
:10137000C8721B491B4801F021FB0194082300930C
:1013800023464FF4C8721849184801F017FB01941E
:101390000723009323464FF4C8721549154801F0FE
:1013A0000DFB01940123009323464FF4C8721249A8
:1013B000124801F003FB01F003FC03B030BD00BF95
:1013C000CCEB0000D7120000D8EB0000B1110000F8
:1013D000E4EB0000A5120000F0EB00007D1200001D
:1013E00000EC0000651200000CEC00004D12000043
:1013F00018EC00009D11000028EC0000C511000051
:10140000034B1B78642B9ABF0370002001207047A8
:10141000B18F0020B0F5805F3DBF024B18800020E7
:1014200001207047DA8F0020B0F5805F3DBF024B8E
:101430001880002001207047DC8F0020B0F5805F0D
:101440003DBF024B1880002001207047DE8F002036
:10145000431E044A073013F8011F02F8011F83429C
:10146000F9D17047D30D0020014B1870704700BFB1
:10147000DC0D0020038C03EB43010C4A02EB41021C
:10148000927892B910B50446084A02EB41035B78A2
:1014900003B110BD09F02CFD0128FAD109F034FD8B
:1014A000012804BF01232377F3E7704738EC0000DD
:1014B00000EB4002194B13F812306BBBF0B58FB044
:1014C00004460D461346154A02EB43039B78012B55
:1014D00001D00FB0F0BD09F011FD0128F9D109F0DC
:1014E00019FD0128F5D1DFF838C004EB44040B4F97
:1014F00007EB44076C460CF108060FCE0FC40FCE65
:101500000FC40FCE0FC4336823609CE80C0029463B
:10151000B88808F091FCDCE7704700BF38EC0000A9
:101520006803002008B5034800F028FD024800F0D9
:1015300025FD08BDA0EC0000DCEC000008B5064B62
:101540001868064B064A014600F0BCF94FF00050FF
:1015500000F0EEF908BD00BF809B002025150000BB
:1015600044ED000010B501F08DFB04464201C30EAE
:10157000121A63F10003990041EA92719000001978
:1015800041F10001CB0043EA5073C20010461946F6
:1015900010BDF0B587B007460E4615461C4618220A
:1015A000002168460DF094FA009701960295039485
:1015B0000C9B0493684600F071FC07B0F0BD00007E
:1015C000F0B583B005460C4616461F460522134962
:1015D00020460DF04DFAD0B1114B1A68072A18D8E1
:1015E000104B02EB820003EB800143F820504C606B
:1015F0008E60CF60089B0B610132094B1A60089B1B
:1016000000933B46324621462846FFF7C2FF03B00F
:10161000F0BD054800F002FEF9E700BFECEC000069
:10162000E00D0020E40D0020F4EC00000B4B1B68E3
:101630009BB130B583B00A4C002523690093E36861
:10164000A26861682068FFF7A4FF01351434034BDA
:101650001B68AB42F1D803B030BD7047E00D0020ED
:10166000E40D002038B5174CA822002120460DF0CB
:101670002FFA032323616361134AA261134BE361D1
:101680004FF4806323620023A3626362E3622266F5
:101690000F4A62661022A2662367E3666367BFF3A0
:1016A0005F8F0C4800F10F0300F10F01C91A93F985
:1016B0000050044C6554834203F1FF33F4D1BFF36F
:1016C0005F8F38BDDC9200204CED0000940E0020AE
:1016D000840E002058ED00002DE9F04704468946AD
:1016E00017462A4B1B785BB2532B28D104EB4403DB
:1016F000264A02EBC3031E6FD3F86C80464521D8FF
:10170000A8EB0605BD4228BF3D46ADB14FF000082D
:1017100004EB44031D4A02EBC303596E2A463144CD
:101720004846FFF729FB2E4445442DB104EB440401
:10173000164B03EBC40426672846BDE8F087FFF785
:1017400091FFD3E704EB440A02EBCA0ADAF86850C7
:10175000AD1BBD4228BF3D46DAF864102A4631442D
:101760004846FFF709FB7F1B2E44DAF86830B34286
:1017700008BF0026A8EB0608474528BF4746002FAC
:10178000D3D0A944A8463D46C2E700BFDC92002062
:101790002DE9F04180460F4616461D461E4B1B782C
:1017A0005BB2532B32D1EFF311824FF0200181F362
:1017B00011880020441C04EB4404174B03EBC404C1
:1017C000636823B10130144B1B698342F2DC124B76
:1017D0001B6983421DDD104B411C01EB4104E400F9
:1017E00043F8048001EB410103EBC1014F6000EBC2
:1017F000400103EBC1031E62002199625962DD6260
:10180000BFF35F8F82F31188BDE8F081FFF72AFFF5
:10181000C9E74FF0FF30F5E7DC9200202DE9F041F9
:101820000446884617461E46164B187840B2532881
:1018300022D1022C23D8EFF311834FF0200181F342
:1018400011885CB104EB44000E4D05EBC000C0F8FC
:1018500060804766866600220267C26604EB440425
:10186000084800EBC404069A6267BFF35F8F83F3F6
:1018700011880020BDE8F081FFF7F4FED9E74FF0B2
:10188000FF30F7E7DC92002070B40446B1B10E4699
:1018900001301546802A28BF80255AB10B461946CB
:1018A00013F9012B32B1194600F8012B6A1C2244AE
:1018B0009042F4D1891B217070BC7047002300F85E
:1018C000013BF9E72DE9F04782B007460E46904606
:1018D0001D46DFF8589000234FF400520F49484648
:1018E000FFF756FFC0B20E4C607020764FF0000A32
:1018F000CDF800A008230B4A4946FFF78FFFC4F834
:1019000010A0094B1B68E360C4F820806760A660E4
:10191000656284F800A002B0BDE8F087C81200201C
:10192000A012002094120020041000E06CED0000D2
:10193000014B1861704700BFA012002008B5034B8F
:101940001B6A13B15B6803B1984708BDA012002061
:1019500010B5064B1C681CB910BD2469002CFBD0C7
:10196000E368002BF9D09847F7E700BFAC330020BD
:1019700010B5EFF311844FF0200181F311880B4B68
:101980001B787F2B0ED90A4963F07F02CA71DA09EE
:10199000083101F8012B1B22064800F0B7F884F348
:1019A000118810BD1A460349F3E700BF9C120020BE
:1019B000C8320020CF32002038B52A4D01232B70C9
:1019C000EFF311844FF0200181F311880A22264998
:1019D0006878FEF7A9FC84F311880A2000F08EF9DC
:1019E000EFF311844FF0200181F311886B687F2B96
:1019F00036D91E4963F07F0201F8012BDB097F2BEA
:101A0000F8D801F8013B174B9B687F2B06D963F090
:101A10007F0201F8012BDB097F2BF8D801F8013B8D
:101A2000104B1B697F2B06D963F07F0201F8012B55
:101A3000DB097F2BF8D80B7000234B701822023182
:101A40000A4800F063F884F31188064B5B6A03B11F
:101A5000984700F0AFF9FFF771FFFFF789FF38BD36
:101A60000249CEE7A012002074ED0000CF32002022
:101A700000B583B001220DF10701234B187EFFF75B
:101A80002BFE00B39DF80730072B09D8DBB15A1E97
:101A9000062A2DD8DFE802F0151A1D20232629007A
:101AA0007F2B10D0802B23D101220DF10701164B83
:101AB000187EFFF711FE30B19DF8070000F06EFBB5
:101AC00001E0FFF779FF03B05DF804FB00F08AF94D
:101AD000F9E700F06FF9F6E7FFF730FFF3E700F002
:101AE0009BF9F0E7FFF744FFEDE7FFF731FFEAE787
:101AF00013F0800FE7D001220DF10701024B187E91
:101B0000FFF7EAFDDFE700BFA0120020F0B585B0C7
:101B100006460C461546764B1B78012B02D043B384
:101B2000022B3CD01F2D05D8714BDB69EB4013F025
:101B3000010F1ED1172D6DD8711E06F8015C6D4B7B
:101B40001D686B4BDB68EB1A7F2B06D963F07F02B5
:101B500004F8012BDB097F2BF8D804F8013B621A4B
:101B6000634B5878FEF7E0FB002800F0B380604B31
:101B7000DD605F4B1B7E604A03EB430102EBC1015A
:101B8000C96E03EB430302EBC3031B6F994204D0FE
:101B9000574B9B78002B00F0A28005B0F0BD0123CD
:101BA0008DF80430524B5B697F2B2BD90DF1050268
:101BB00063F07F0102F8011BDB097F2BF8D802F8E4
:101BC000013B4C4B1F684A4BDB68FB1A7F2B06D945
:101BD00063F07F0102F8011BDB097F2BF8D802F8C4
:101BE000013B01A9521A424B5878FEF79DFB60B1A8
:101BF0003F4BDF601A78013A1A703D4B1B78012B7E
:101C0000B7D18FE70DF10502D9E7394A536901339E
:101C10005361F2E7A31B7F2B0DD9DA0906F8012CDB
:101C2000B21E63F07F0306F8023C7E2D07D8511EDA
:101C300002F8015C83E7721E06F8013CF5E7B5F592
:101C4000804F08D2EB0902F8013C911E65F07F0538
:101C500002F8025C73E7B5F5001F0DD2AB0B02F87A
:101C6000013CEB0963F07F0302F8023CD11E65F0F2
:101C70007F0502F8035C62E7B5F1805F12D26B0D5D
:101C800002F8013CAB0B63F07F0302F8023CEB0966
:101C900063F07F0302F8033C111F65F07F0502F833
:101CA000045C4CE72B0F02F8013C6B0D63F07F03E3
:101CB00002F8023CAB0B63F07F0302F8033CEB0934
:101CC00063F07F0302F8043C511F65F07F0502F8C2
:101CD000055C34E7064A13780133137049E7044C76
:101CE0000123A370FFF7C4FE0023A37055E700BFD4
:101CF000A0120020041000E0DC92002010B5024683
:101D0000EFF311844FF0200181F31188034801465D
:101D1000FFF7FCFE84F3118810BD00BFCF32002016
:101D200038B502460B46EFF311854FF0200181F3E1
:101D300011887F2B0FD9094963F07F0401F8014B0B
:101D4000DB097F2BF8D801F8013B0448FFF7DEFEE2
:101D500085F3118838BD0149F5E700BFCF32002077
:101D600038B50B46EFF311854FF0200181F3118850
:101D70007F2B1BD90E4963F07F0401F8014BDB096F
:101D80007F2BF8D801F8013B7F2A06D962F07F0348
:101D900001F8013BD2097F2AF8D801F8012B02464D
:101DA0000348FFF7B3FE85F3118838BD0049E9E722
:101DB000CF32002008B5094B1B6A43B11B6833B111
:101DC00098470A4601460D20FFF7CAFF08BD044B9D
:101DD00019680C20FFF7A4FFF8E700BFA01200204D
:101DE000041000E010B5EFF311844FF0200181F3EF
:101DF0001188074B1B7813B984F3118810BD05486F
:101E00000B220146FFF782FE014B00221A70F3E716
:101E1000A0120020CF32002010B5EFF311844FF054
:101E2000200181F311881B4B5B687F2B30D91A4945
:101E300063F07F0201F8012BDB097F2BF8D801F852
:101E4000013B144B9B687F2B06D963F07F0201F89E
:101E5000012BDB097F2BF8D801F8013B0D4B1B69E7
:101E60007F2B06D963F07F0201F8012BDB097F2B62
:101E7000F8D80B7000234B70182202310648FFF788
:101E800045FE84F31188034B5B6A03B1984710BD8C
:101E90000149D4E7A0120020CF32002038B5054612
:101EA000EFF311844FF0200181F311880368314A68
:101EB00012699B1A7F2B59D92F4863F07F0200F8D3
:101EC000012BDB097F2BF8D800F8013BAB687F2B97
:101ED00006D963F07F0200F8012BDB097F2BF8D8CD
:101EE00000F8013B20226968FFF7CEFC0146092279
:101EF0002148FFF70BFE2B681E4A12699B1A7F2BA5
:101F000036D91D4963F07F0201F8012BDB097F2BD5
:101F1000F8D801F8013BEB687F2B06D963F07F020C
:101F200001F8012BDB097F2BF8D801F8013B2B6965
:101F30007F2B06D963F07F0201F8012BDB097F2B91
:101F4000F8D801F8013B6B697F2B06D963F07F025B
:101F500001F8012BDB097F2BF8D801F8013B152292
:101F60000548FFF7D3FD84F3118838BD0248ABE77D
:101F70000149CEE7A0120020CF32002038B5EFF3A0
:101F800011854FF0200181F31188074C8022014612
:101F90002046FFF779FC01460E222046FFF7B6FDEA
:101FA00085F3118838BD00BFCF32002010B5EFF3A4
:101FB00011844FF0200181F311880C4B1A68C2F391
:101FC000080312F4C07F0ED0094963F07F02CA7182
:101FD000DB09083101F8013B02220648FFF796FDB4
:101FE00084F3118810BD0349F4E700BF04ED00E05D
:101FF000C8320020CF32002010B5EFF311844FF02B
:10200000200181F31188044803220146FFF77EFD79
:1020100084F3118810BD00BFCF32002010B5EFF35C
:1020200011844FF0200181F31188044812220146E7
:10203000FFF76CFD84F3118810BD00BFCF32002084
:1020400010B5EFF311844FF0200181F3118804489B
:1020500011220146FFF75AFD84F3118810BD00BF1D
:10206000CF32002010B5EFF311844FF0200181F33F
:1020700011880C4B1B69C01A7F2810D90A4960F0DF
:102080007F0301F8013BC0097F28F8D801F8010B54
:1020900008220548FFF73AFD84F3118810BD024974
:1020A000F4E700BFA0120020CF32002010B5EFF3FC
:1020B00011844FF0200181F311880C4B1B69C01A69
:1020C0007F2810D90A4960F07F0301F8013BC0095D
:1020D0007F28F8D801F8010B04220548FFF716FD08
:1020E00084F3118810BD0249F4E700BFA01200205C
:1020F000CF32002010B5EFF311844FF0200181F3AF
:1021000011880C4B1B69C01A7F2810D90A4960F04E
:102110007F0301F8013BC0097F28F8D801F8010BC3
:1021200006220548FFF7F2FC84F3118810BD02492E
:10213000F4E700BFA0120020CF32002010B50B46FC
:10214000EFF311844FF0200181F31188114A1269D5
:10215000801A7F281BD9104960F07F0201F8012BFB
:10216000C0097F28F8D801F8010B7F2B06D963F04E
:102170007F0201F8012BDB097F2BF8D801F8013B26
:1021800007220548FFF7C2FC84F3118810BD0249FD
:10219000E9E700BFA0120020CF32002038B51C4B69
:1021A0001C6894B3024628B1002324696CB3013340
:1021B0009342FAD1EFF311854FF0200181F311889A
:1021C0007F2823D9134B60F07F02DA71C20903F133
:1021D000080000F8012BA3687F2B06D963F07F026B
:1021E00000F8012BDB097F2BF8D800F8013B802297
:1021F0002168FFF749FB014616220748FFF786FCD6
:1022000085F31188E36803B1984738BD0248E0E7D9
:10221000AC330020C8320020CF32002038B5EFF3B5
:1022200011854FF0200181F31188094C802201466D
:102230002046FFF729FB01230370002343701A2275
:10224000811C2046FFF762FC85F3118838BD00BF72
:10225000CF32002010B4134B1A461B688342FBD3C5
:1022600051685418A0420AD041684418A3420BD0C8
:102270000360904218BF10605DF8044B70474068DF
:10228000014451601046EFE7074C2468A34206D092
:102290005B681944416013681B680360E9E70460E8
:1022A000E7E700BFC8830020B0330020F8B504463C
:1022B00000F0DAFC464B1B68D3B1464B1E68264241
:1022C00040F08180631E13F10A0F7CD804F10803EB
:1022D00014F0070F05D023F0070208329A4272D992
:1022E00013463D4A15689D426DD33C4A146827E069
:1022F0003B4A12F0070F1ED0D11D21F0070102F555
:10230000A0435B1A0A46354802600021416013442D
:10231000083B23F007032E48036059601960991A9F
:10232000516013602F4B19602B4B1960294B4FF0F4
:1023300000421A60C1E74FF4A043E4E722460C468E
:102340006168994202D221680029F7D120490968C1
:10235000A14238D017680837216811606268D21A24
:10236000102A10D9E01810F0070F08D04FF0200302
:1023700083F31188BFF36F8FBFF34F8FFEE7426087
:102380006360FFF767FF6268AD1A13490D60154976
:1023900009688D423CBF13490D60164366600023F7
:1023A0002360114A13680133136000F009FD17F030
:1023B000070F0BD04FF0200383F31188BFF36F8F0B
:1023C000BFF34F8FFEE700F0FBFC00273846F8BD57
:1023D000B0330020B4830020B8830020C8830020DD
:1023E000B4330020BC830020C0830020002833D0F9
:1023F00010B5044650F8043C184A1268134208D13C
:102400004FF0200383F31188BFF36F8FBFF34F8F1B
:10241000FEE750F8081C41B14FF0200383F3118808
:10242000BFF36F8FBFF34F8FFEE723EA020340F83D
:10243000043C00F019FC0A4A54F8043C11680B44AF
:102440001360A4F10800FFF705FF064A1368013383
:10245000136000F0B5FC10BD704700BFB4830020CE
:10246000B8830020C483002082B0002301930D4B69
:102470001B68B3F1FF3F08D04FF0200383F31188AE
:10248000BFF36F8FBFF34F8FFEE74FF0200383F34F
:102490001188BFF36F8FBFF34F8F019B002BFCD0D0
:1024A00002B070470000002008480068006880F310
:1024B00008884FF0000080F3148862B661B6BFF35D
:1024C0004F8FBFF36F8F00DF00BF000008ED00E00B
:1024D000DFF80C00016841F47001016070470000F2
:1024E00088ED00E04FF0807340F8043C21F00101DA
:1024F00040F8081C054B40F80C3C40F8202C6FF0CD
:10250000020340F8243C4438704700BF69240000AF
:10251000074B19680868B0E8F04F80F30988BFF3EB
:102520006F8F4FF0000080F311887047AFF3008089
:10253000D88300204FF0200383F31188BFF36F8FFF
:10254000BFF34F8F0A4A136801331360012B00D089
:102550007047084B1B6813F0FF0FF9D04FF02003B2
:1025600083F31188BFF36F8FBFF34F8FFEE700BF78
:102570000000002004ED00E0094B1B6843B94FF058
:10258000200383F31188BFF36F8FBFF34F8FFEE7F4
:10259000013B034A13600BB983F31188704700BFF6
:1025A000000000200000000000000000000000000B
:1025B000EFF30980BFF36F8F154B1A681EF0100FF1
:1025C00008BF20ED108A20E9F04F10602DE90900C6
:1025D0004FF0200080F31188BFF34F8FBFF36F8F50
:1025E00000F0CCFC4FF0000080F3118809BC1968A2
:1025F0000868B0E8F04F1EF0100F08BFB0EC108A6A
:1026000080F30988BFF36F8F704700BFAFF300807E
:10261000D883002008B54FF0200383F31188BFF35F
:102620006F8FBFF34F8FFFF7C1FC00F033FB48B152
:10263000FFF7F4FC054B4FF080521A60002383F340
:10264000118808BDFFF7D8FCF8E700BF04ED00E0F3
:10265000084A0023136008490B60084B1B680849AF
:10266000A1FB03139B09013B06490B600723136081
:10267000704700BF10E000E018E000E0809B002001
:10268000D34D621014E000E03B4B1A683B4B9A427A
:1026900039D0394B1A683A4B9A423DD010B582B0C6
:1026A000384B1A78D2B20192FF221A701B78DBB233
:1026B0008DF803309DF8033003F02003324A137085
:1026C000324B07221A609DF8033013F0800F11D0AF
:1026D00006229DF803305B00DBB28DF803309DF8D5
:1026E00003101346013A11F0800FF2D1274A13600C
:1026F000042B1AD04FF0200383F31188BFF36F8FA0
:10270000BFF34F8FFEE74FF0200383F31188BFF331
:102710006F8FBFF34F8FFEE74FF0200383F31188D5
:10272000BFF36F8FBFF34F8FFEE7184B4FF48062FC
:102730001A60019BDBB202F1E0221370144B1A689D
:1027400042F460021A601A6842F060421A60FFF7B1
:102750007FFF00240F4B1C60FFF7BAFE0E4A136880
:1027600043F040431360FFF79FFE00F007FCFFF7C4
:102770007BFE204602B010BD00ED00E071C20F41AB
:1027800070C20F4100E400E0D0830020D483002019
:1027900020ED00E00000002034EF00E0EFF30583BF
:1027A0000F2B0FD9104A9B5CDBB2104A12789A4269
:1027B00008D94FF0200383F31188BFF36F8FBFF365
:1027C0004F8FFEE70A4B1B6803F4E063094A126867
:1027D000934208D94FF0200383F31188BFF36F8F22
:1027E000BFF34F8FFEE77047F0E300E0D083002097
:1027F0000CED00E0D483002000F1080343604FF0AB
:10280000FF328260C36003610023036070470023CE
:102810000361704743684B609A688A6051609960B1
:102820000861036801330360704730B40D68B5F187
:10283000FF3F11D000F108031C465B681A68AA42EA
:10284000FAD963684B6099608C60616008610368C5
:102850000133036030BC70470469F2E703694168E3
:1028600082688A60416851605A68824204BF826807
:102870005A60002202611A68013A1A6018687047AB
:10288000074B1B681B6823B9064B4FF0FF321A60D9
:102890007047034B1B68DB681A68024B1A6070476D
:1028A000DC830020C484002008B5154B1B68D3B11D
:1028B000FFF740FE134BDB68DD68281DFFF7CEFFF6
:1028C000114A1368013B13600D4C2368013B2360E0
:1028D000FFF752FE286BFFF789FD2846FFF786FDBC
:1028E0002368002BE4D1094B1B68012BDDD9084B71
:1028F0004FF080521A60BFF34F8FBFF36F8FD4E752
:1029000088840020FC84002084840020E48300204C
:1029100004ED00E070B504460D46214B1E68214BC6
:1029200018680430FFF79AFF48B91E4B1A681E4911
:102930000B68D06A0122824023EA02030B60B4F1E3
:10294000FF3F11D03444174B1B685C60A64214D97A
:10295000144C20680421FFF7F1FB144B1868216820
:102960000431FFF762FF70BD002DEBD00D4B1968ED
:1029700004310F48FFF74EFFF5E70A4D28680421A0
:10298000FFF7DCFB0B4B186829680431FFF74DFF9C
:10299000094B1B68A34284BF074B1C60E3E700BFE1
:1029A00010850020D883002094840020E08300203C
:1029B000E8840020DC830020C48400202DE9F04F4F
:1029C00083B007460D46984696003046FFF76EFCEA
:1029D000002800F0CF8081465C20FFF767FC0446AA
:1029E000002800F09980C0F830903246A521484672
:1029F0000CF06EF8D4F83090002D00F093806A1E31
:102A000004F133010E3512F9013F01F8013F0BB11A
:102A1000AA42F8D1002384F842300C9D072D28BF2C
:102A20000725E562E5644FF0000BC4F850B004F1EF
:102A3000040A5046FFF7EBFE04F11800FFF7E7FE2B
:102A40002461C5F10805A56164620422594604F1B8
:102A500054000CF03DF80122594604F158000CF0E6
:102A600037F8043E4E444246394626F00700FFF749
:102A700039FD20600D9B03B11C60FFF75BFD424AEE
:102A8000136801331360414B1B68002B4ED0404B41
:102A90001B683BB93D4B1B68DA6AE36A9A429CBFEC
:102AA0003A4B1C603B4A1368013313606364204651
:102AB000FFF7D8FA236BE26A214651F8340BC01AAB
:102AC00000902046FEF77CFD2046FFF713FBE06AEE
:102AD000314A1168012383400B43136000EB8000EF
:102AE00051462E4B03EB8000FFF794FEFFF744FDA9
:102AF000274B1B68002B42D0244B1B68DA6AE36A21
:102B00009A423ED2264B4FF080521A60BFF34F8F4D
:102B1000BFF36F8F01202FE04846FFF767FC4FF0AF
:102B2000FF3029E0002384F8343076E7174B1C602F
:102B30001368012BB6D1194D05F1A0062846FFF701
:102B40005BFE1435AE42F9D1164E3046FFF754FE07
:102B5000154D2846FFF750FE1448FFF74DFE144868
:102B6000FFF74AFE1348FFF747FE134B1E60134B57
:102B70001D6097E74FF0FF3003B0BDE8F08F0120F4
:102B8000FAE70120F8E700BF84840020D883002002
:102B9000E48400209084002094840020E4830020BA
:102BA00004ED00E098840020AC840020D084002054
:102BB000FC840020E8840020DC830020E0830020E7
:102BC00000B583B0204B0193002300934FF4C872EB
:102BD0001E491F48FFF7F2FE012807D0B0F1FF3F62
:102BE00028D01C4B1B6803B05DF804FB4FF020039A
:102BF00083F31188BFF36F8FBFF34F8F164B4FF0E6
:102C0000FF321A60154B01221A60154B00221A6020
:102C1000144B186805220D4934300BF029FF30B1F0
:102C2000104B1868FFF742FAFFF72EFDD9E7FFF7C0
:102C300007FAF9E74FF0200383F31188BFF36F8F92
:102C4000BFF34F8FFEE700BFC0840020ECEC000014
:102C5000A928000004000020C4840020E48400208F
:102C600010850020D8830020024A136801331360C6
:102C7000704700BF8C840020014B1868704700BF6C
:102C80001085002008B5FFF789FD014B186808BDC5
:102C900010850020F8B53F4B1B68002B73D13E4BCD
:102CA0001E6801361E60C6B93C4B1B681B6843B1E9
:102CB0004FF0200383F31188BFF36F8FBFF34F8F63
:102CC000FEE7364A1168364B186810601960354ABD
:102CD000136801331360FFF7D3FD334B1B68B34216
:102CE0003FD82E4B1B681B680BB1002426E0002444
:102CF0002D4B4FF0FF321A6034E02B4A136031E065
:102D00002846FFF7F7F9E86A284A1168012383404B
:102D10000B43136000EB80003946254B03EB80002A
:102D2000FFF778FD234B1B68EA6ADB6A9A4228BFEB
:102D300001241A4B1B681B68002BD9D0174B1B684A
:102D4000DB68DD686B689E42D7D32F1D3846FFF7DE
:102D500085FDAB6A002BD3D005F11800FFF77EFD8F
:102D6000CEE70024134B1B68DB6A03EB83039B0055
:102D70000F4AD358022B28BF01240F4B1B68002B8E
:102D800018BF012404E00D4A1368013313600024C6
:102D90002046F8BD8C84002010850020DC830020B4
:102DA000E0830020C8840020C48400209484002094
:102DB000E4830020D883002014850020CC840020E8
:102DC00038B5384B1B6843B94FF0200383F31188A3
:102DD000BFF36F8FBFF34F8FFEE7FFF7ABFB314BB6
:102DE0001A68013A1A601B68002B40D12E4B1B68F1
:102DF000002B41D02D4B1B6823B941E02B4B1B68A6
:102E0000002B3BD0294BDB68DC6804F11800FFF78E
:102E100025FD251D2846FFF721FD2046FFF76AF90D
:102E2000E06A234A1168012383400B43136000EBDF
:102E3000800029461F4B03EB8000FFF7EBFC1E4B85
:102E40001B68E26ADB6A9A42D8D31C4B01221A60E3
:102E5000D4E7013C07D0FFF71DFF0028F9D0174B3E
:102E600001221A60F5E7164B00221A600CE00024DC
:102E7000FFF782FB204638BD0024F9E7FFF700FD8D
:102E80000F4B1C68002CE6D10C4B1C68002CEFD0BB
:102E90000C4B4FF080521A60BFF34F8FBFF36F8F10
:102EA0000124E5E78C84002084840020D084002065
:102EB00094840020E4830020D8830020148500201F
:102EC000CC84002004ED00E060B170B50C460546EE
:102ED00089B94FF0200383F31188BFF36F8FBFF3DD
:102EE0004F8FFEE74FF0200383F31188BFF36F8FFE
:102EF000BFF34F8FFEE71E4B1B6843B14FF020031B
:102F000083F31188BFF36F8FBFF34F8FFEE7FFF797
:102F1000ABFE184B1E682B681C44B3420BD9A3426E
:102F200002D82C60002413E0A64202D32C600024B7
:102F30000EE02C6004E0A34201D8A64215D22C601A
:102F40002420FEF7DBFE0021A01BFFF7E3FC012499
:102F5000FFF736FF38B9084B4FF080521A60BFF3C5
:102F60004F8FBFF36F8F204670BD2C600024EFE7BA
:102F70008C8400201085002004ED00E008B5334B60
:102F80001B681BB1324B01221A6008BD304B002276
:102F90001A60304B1B681B6B1A68B2F1A53F03D156
:102FA0005A68B2F1A53F1BD02A4B18681968343112
:102FB000FEF7A5F9284B1B68B3FA83F3DBB2C3F124
:102FC0001F0303EB8302920024498A588AB94FF009
:102FD000200383F31188BFF36F8FBFF34F8FFEE79A
:102FE0009A68B2F1A53FDFD1DB68B3F1A53FDBD131
:102FF000E0E71A4A03EB830102EB8101486840686D
:10300000486003EB830102EB81020832904214D046
:1030100003EB8303114A02EB83035B68DA680D4B11
:103020001A60186805220E4934300BF021FD50B1AA
:10303000084B1868FFF73AF8A7E74068074A02EB21
:1030400081025060E4E7FEF7FBFF9EE78C840020DE
:1030500014850020D883002094840020E48300207D
:10306000ECEC000091B3F0B40B46011F013B9BB2A6
:1030700000EB83044FF6FF7051F8046F154DF3B267
:1030800083EA102335F8132082EA002083B27040CF
:10309000C0F3072035F8102082EA032297B2C6F366
:1030A0000740C2F30722424035F8123083EA072373
:1030B0009AB2C3F3072383EA166335F8130080EA54
:1030C000022080B2A142D7D1F0BC70474FF6FF700A
:1030D000704700BF80ED0000064B1B88834206D07E
:1030E000044B9B89834214BF0220012070470020BB
:1030F000704700BF0C0000207D4B1B78012B01D0D6
:10310000042070472DE9F047044607F057F90028DE
:1031100040F0EB802046FFF7DFFF0446012801D98D
:103120000420E3E0054600EB4003724A02EB830310
:1031300059886F4B02221A7000EB40036E4A02EB73
:10314000C3035B78012B14D071B1002105EB45035B
:10315000684A02EB83038AB25868FF248454013121
:103160005A888BB29A42F1D8614B01221A7003201F
:10317000BCE04FEA9108DFF884A100238AF8003010
:1031800000EB40035C4A02EBC3039F68D7F804904E
:1031900007F1080641463046FFF764FF00BF9AF882
:1031A0000030DBB2012B3DD01FFA89F981455ED09A
:1031B00004EB4403504A02EBC3031F69B7F80490C1
:1031C00007F1080641463046FFF74CFF00BF814536
:1031D00071D004EB4402474B03EB82035B88002170
:1031E0006BB105EB4503434A02EB83038AB258688F
:1031F000FF26865401315A888BB29A42F1D804EBEB
:1032000044023D4B03EBC20300225A7004221A759C
:1032100004EB4404374B03EB8404A3689B6801224E
:103220001A71A1E704EB4402334B03EBC203002203
:103230005A7003221A7504EB44042E4B03EB8403EB
:103240009A689268012111715B88002B8CD0002153
:1032500005EB4503274A02EB83038AB25868FF2433
:10326000845401315A888BB29A42F1D87CE7B8F184
:10327000000F15D008F1FF339BB207F10C0000EBF3
:103280008300316805EB45031A4A02EB83035A6851
:1032900032446FF00703DB1BD1500436B042F0D14B
:1032A000154B04EB440203EBC2020121517013469B
:1032B00000221A7558E7B8F1000FA0D008F1FF33CB
:1032C0009BB207F10C0000EB8300316805EB45036E
:1032D000084A02EB83035A6832446FF00703DB1B92
:1032E000D15004368642F0D189E70420BDE8F0874A
:1032F000198500200C00002028850020588500201A
:103300002DE9F04186B09C4B1B78022B0BD09B4BD8
:103310001B682BB1013B994A1360002B00F03883E6
:1033200006B0BDE8F081964B1B78092B00F0978121
:103330000A2B40D0904B01221A70904B00221A6049
:1033400007F048F8E3E78F4B1B788F4A03EB430104
:1033500002EB81039B689B7803EB430352F8212027
:1033600002EB8301098952F8230006F0F9FF07F008
:103370002BF8864B0E221A701DE006F081FE07F036
:103380001DF8012823D007F019F80028D2D107F042
:1033900027F8022827D17B4B1B7803EB43037A4A9B
:1033A00002EB830399680B79012B14D003230022CD
:1033B0000A61052B06D1754B1B780D2BC3D00E2B44
:1033C000DBD00423033BDBB2012BA0D8B2E76F4B69
:1033D0000E221A709BE76A4B09221A706B4B12225D
:1033E0001A700623E3E706F0FBFF0328A2D1654B22
:1033F0001B7803EB4303644A02EB83039A68137957
:10340000012B06D00423116909290AD80131116161
:10341000D8E75B4B092119705C4B12211970062308
:10342000F1E70123D3705A4A137083E7594B1B8885
:10343000012B15D81A4603EB4301574800EBC10195
:10344000C978012900F090825A1C92B2012A05D84D
:10345000C17E012900F0868202339AB24D4B1A8058
:103460004E4B00221A7065E74D4B1888012800F278
:103470006A824C4B1B8803EB43034B4A02EB8303EA
:103480009E68464B1F78034600EB4000424A02EB21
:10349000C00036E2434B1A8802EB4201424B03EB79
:1034A00081039B68996808780C7994B91C6800EBD3
:1034B000400504EB850402EB42023B4D05EB820222
:1034C000528808328D682A446468944250D201229E
:1034D0000A719A68117901294AD1D178002936D127
:1034E000D4681D79314901FB05F18C422FD201349A
:1034F000D46099684A7801324A709A685478197988
:103500008C4224BF002151709A6851788842F0D0D3
:10351000917099684A781B6802EB420253F8223096
:1035200010338B601E4B00221A801E4B1B8803EB4E
:1035300043031D4A02EB83039A68134B9A4213D04C
:103540000F4B0A221A70114B0D221A70DFE601236D
:10355000D3700F4A1370114B1B78012B7FF4EAAE26
:103560000A4B13221A707AE0064B00221A70E7E722
:10357000064B10221A7072E0198500202085002069
:103580000800002059850020240000201885002014
:103590005A8500201A850020288500201C850020DF
:1035A0005C850020248500200C000020A0860100FE
:1035B000B84B1E88B84906EB460401EB84039F68AC
:1035C000BA68D2F808805D88D3F804C031F8243096
:1035D000ADF80030ADF8025041F23423ADF80630BA
:1035E0001379002B4ED15DB10CF1FF33AB4A681E4D
:1035F0001CFA80F013F8011F02F8011F8342F9D171
:10360000A74CA90804F10800FFF72CFDADF8040051
:103610000DF1FF33621E0DF1070413F8011F02F8CC
:10362000011FA342F9D19F4B06EB460203EBC202F6
:10363000D080C2F80C80BA6805F1080189B293689D
:103640000B449360964A404606F0A0FE06F0BCFE8E
:10365000954B11221A700523052B7FF4B3AE924BC4
:103660001B780F3B042B00F2918101A252F823F04A
:1036700095340000B1350000C73700006934000000
:103680002D340000012B05D0022B75D000231371BF
:103690000423E1E706EB4603824A02EBC3039B786F
:1036A000012B42D006EB46037E4A02EBC3039B8804
:1036B000ADF804300DF1FF337C4A0DF1070013F82B
:1036C000011F02F8011F8342F9D1ADB106EB460399
:1036D000744A02EBC3039C68083400231959704AEA
:1036E0001A441172080A5072080C9072090ED172B5
:1036F00004339BB29D42F1D806EB4606694B03EBBF
:10370000C606C6F80C80BA6805F1080189B293684C
:103710000B449360624A404606F038FE06F054FEC1
:10372000614B11221A70052396E75DB10CF1FF334E
:103730005A4A681E1CFA80F013F8011F02F8011F94
:103740008342F9D1564CA90804F10800FFF78AFC1E
:10375000ADF804000DF1FF33621E0DF1070413F8FC
:10376000011F02F8011FA342F9D106EB46034D4A9F
:1037700002EBC303D880BFE7D36802934C4B03939B
:1037800003F188330493A3F1443305930DF1070348
:10379000464A0DF1170013F8011F02F8011F83427A
:1037A000F9D1BB685B78386803EB43033C4A1021CE
:1037B00050F8230006F0EAFD06F006FE3A4B11220F
:1037C0001A70052348E7334B1B8803EB4303324A47
:1037D00002EB83039C6806F053FC06F0EFFD012822
:1037E00003D1314B11221A7091E506F0E7FD002854
:1037F0007FF4A0AD06F0F4FD022869D1A268137928
:10380000D3B9244B1A88274902EB420301EBC303C7
:10381000D88898800020987001245C709C681C6196
:10382000DC689C601875234B1B78012B7FF482ADFC
:103830001D4B13221A706AE5012B1BD0022B7FF45B
:1038400079AD1549174B03F130058868844215D0CE
:103850000C311833AB42F8D100231371A3685A78A6
:103860001A70144B1B78012B7FF464AD0E4B13229E
:103870001A704CE50C4B12221A7048E518465E7817
:10388000012E19D09E78012EE2D1C68886800026AE
:10389000067514E0248500200C00002067850020B8
:1038A0006085002028850020188500205F85002085
:1038B000674523011C8500209E78012EE5D0002657
:1038C00086700126467086680661C6688660BFE716
:1038D00006F086FD03287FF42DADA36801221A713E
:1038E0002E4B0F221A7012E54178012920D08178E1
:1038F00001291DD0013292B21830013399B2012949
:103900001FD89AB21D4603EB4301254C54F82110F1
:103910008E42EFD1012FE7D1C1780129E4D1214BAB
:1039200005EB450103EBC101012088700023CB703A
:103930001D4B1A8001321D4B1A80184B10221A7031
:103940008DE61A4B1A80184B1B8803EB4303184A69
:1039500002EB83039B689B6802221A710F4B1022B3
:103960001A707CE6134601220E4902EB420001EB7D
:10397000C000012484700021C1700B4A13802344CD
:103980000C4A1380054B0F221A7068E6042363E685
:10399000094B01221A7006F01DFDC1E418850020B4
:1039A0001400002028850020248500205C8500204C
:1039B0000C0000201A850020198500202DE9F8430D
:1039C00002F0A4FD974B996800220A7099688A70EA
:1039D00099680A7199680A709968CA601B79002B06
:1039E00051D014461646174609E0BC4584BF2E4602
:1039F000674601348B4B1A79E3B29A4225D9E5B276
:103A0000884B1B6805EB450253F82230864900229B
:103A10000A7086480260D3F800C0D3F804E0D3F8F7
:103A20000880D3F80C9000BF02600B78DBB2012B4A
:103A3000DFD07F4B9E45DCD103F188339845D8D148
:103A4000A3F144339945D4D1CFE7E7B1754A9368E0
:103A50001E7093685E709068C76006EB460311683D
:103A600001EB8304666851F8235010351279714BCD
:103A700003FB02F3BB4203D80123C3706E4A1370E9
:103A8000AE4260D8ABE06D4B9A68664B9A4208D064
:103A90006A4B5A69634B9A4208BF012440F0A280E6
:103AA00000E000240023664A13705E4A91680B719F
:103AB00092689370634B0A221A70634B0D221A703E
:103AC000624B02221A70FFF71BFC604B1B78022B23
:103AD000F9D0544B996800224A7099680A709A6824
:103AE0000123D36002231371594A1480554A0921D6
:103AF0001170554A10211170544A1370FFF700FCE1
:103B0000524B1B78022BF9D046498A681378096812
:103B100003EB430351F823301033936062E0414BD1
:103B20009B681A715BE000EB4003444A02EB83039D
:103B30009A683C4B9A4235D03A4B9B6801221A71E5
:103B4000A64251D92546384800220270374C2260DF
:103B50002B68696800BF22600278D2B2012ADED0E9
:103B600098B21C0C27460A0C0B40B3F1FF3F36D02D
:103B700041F234239A422ED114F0070F2BD1A4F135
:103B800008039BB2B3F57E7F20D808342C44A642AC
:103B90001CD3FFF7A1FA0128C5D9224B9B6801224B
:103BA0001A71CDE700EB4003244A02EB83035B88E4
:103BB000BB42C1D1274B00EB400103EBC1020127FF
:103BC00003F83170916811619560B9E7154B9B68F6
:103BD00001221A7103E0134B9B6801221A71114BE9
:103BE0009B689D60002449E02546F8E704EB440308
:103BF000184A02EBC30303221A7504EB44030F4A6D
:103C000002EB83039B689B6801221A7177E0114ADB
:103C100004EB440102EBC101012048708B800023BA
:103C20000B7527E0240000205885002010E001409B
:103C300067452301A08601005A8500200C00002062
:103C400059850020080000201885002019850020D3
:103C50002485002028850020534B04EB440203EB0D
:103C6000C20200219160116104EB440203EBC20324
:103C700002221A750134A4B2012C59D825464A49AA
:103C800004EB440001EBC00300225A709A709A8042
:103C9000DA80DA601A7511F83030012BDCD1434A32
:103CA00002EB80035988424F00263E70DFF8048102
:103CB000C8F800603C4A02EBC0039868D0F8049052
:103CC00089080830FFF7CEF900BFC8F800603B78DC
:103CD000DBB2012B8AD01FFA89F3834297D004EB21
:103CE0004403314A02EBC30304221A7504EB440374
:103CF0002E4A02EB83039B689B6801221A7105EB35
:103D00004503294A02EBC3031B7D033BDBB2012BB6
:103D1000B0D805EB450302EBC3031B69002BA9D008
:103D200005EB450102EBC1018B6000230B61A3E7AA
:103D30001E491D4C01F1180E28E0D4F808C00CF102
:103D400008071C4A002010609B0810D0013B9BB262
:103D50000CF10C0202EB8303686838446FF0070231
:103D6000A2EB0C023E68865004379F42F4D1114BFF
:103D700000221A6006E06868FF278754013290B27B
:103D80008342F8D80C311834714508D00D464B8861
:103D90006278012AD1D00022002BECD1F2E7064B49
:103DA00001221A70BDE8F883288500200C0000204D
:103DB0005885002010E0014019850020014B18783B
:103DC000704700BF1985002000B583B00DF10701D1
:103DD000164802F075FB18B19DF80730022B02D08F
:103DE00003B05DF804FB124B986B124B1979002954
:103DF000F6D01A68131D0139C9B201EB4101103226
:103E000002EB810102E00C338B42E9D053F8042C21
:103E10008242F8D81A688242F5D9074B01221A70FB
:103E2000064A136843F080031360D9E7DC8E002054
:103E300000ED00E0240000205885002010E0014043
:103E400008B5FFF7C1FF08BD104A114B9A420AD2CC
:103E5000013B9B1A23F0030304331344002142F86F
:103E6000041B9A42FAD10B4A0B4B9A420CD20B49D3
:103E7000013B9B1A23F003030433134451F8040B52
:103E800042F8040B9A42F9D1704700BFD00D0020D0
:103E9000849B002000000020C80D002000090100C4
:103EA000204B214A1A60214B1B6813F4006FFAD093
:103EB0001E4B42F620121A6008334FF470421A600B
:103EC0001A4B1B6813F4806FFAD0194B164A1A600C
:103ED000184B1B6813F4006FFAD0164B42F62012F1
:103EE0001A6008334FF470421A60124B1B6813F4C7
:103EF000806FFAD0104B4FF080421A6002F5743296
:103F00004FF0FF31116000221A600C4AD2F888305D
:103F100043F47003C2F88830BFF34F8FBFF36F8F45
:103F2000F746704704200540821918080020054014
:103F30000430054000300540F450064000ED00E03C
:103F400008B50278104B53F822301A6812F0080FA7
:103F50001CBF08221A601A6812F0040F1CBF04224A
:103F60001A601A6812F0020F1CBF02221A601A6847
:103F700012F4807F1CBF4FF480721A6083680BB10B
:103F80004169984708BD00BF98EF0000F0B402787F
:103F9000724B53F822508B7A032B19BF8C7902266F
:103FA000012400264A7A0B68002B00F0AD80D34034
:103FB0006B4AA2FB03239B0C03EB83030133FF2B10
:103FC00028BFFF23022B38BF02231022AA60002241
:103FD000AA60CF790A7AD20742EA0752CF7ABF079E
:103FE00007F080473A438F7ABF0507F440073A430A
:103FF0004F79BF0207F480673A430F793F0207F415
:1040000040773A4342EA0642E40204F46054224311
:10401000EA604A7B43EA82438A7B120402F440321C
:1040200013430A7B120302F48052134343F080537C
:104030002B612B6943F400532B612B6913F4804FE0
:1040400006D1484A2B6913F4804F01D1013AF9D1C6
:104050002B6913F4804F08D02A694B7A1B0203F4B2
:10406000407322F4407213432B612B6923F40053F5
:104070002B612B6913F4804F06D03A4A2B6913F455
:10408000804F01D0013AF9D101F10F07002217F852
:10409000013B023BDCB2D3B2032BFCD86B694FEA85
:1040A000C20CFF2606FA0CF623EA060604FA0CF305
:1040B00033436B610132042AE9D1CB7C2A4A954211
:1040C00024D02A4A954234D0CC7DC4714D7D4571AF
:1040D0008B7D83710A6A02618A698260CA69C260E3
:1040E0004A6A426101781D4A52F82110CA68C2F337
:1040F0008152032A4FEA031343EAC41318BF43EA69
:10410000C5034B60F0BC7047C0235EE702F5504228
:1041100094691B0103F0300324F0300423439361BE
:1041200094690B7D03F0010324F0010423439361A0
:10413000CAE702F5043294691B0303F4405324F4E4
:1041400040542343936194690B7D1B0203F48073F5
:1041500024F4807423439361B6E700BF98EF000016
:1041600083DE1B43C0E1E40000B003400070024066
:10417000F0B40478334B53F82450EB680271C3F366
:104180008153032B2FD00024EAB105EB8400066D88
:104190004B1C13F814301B0203F4407326F44076D2
:1041A00033430365036D23F040030365066D11F887
:1041B000143003F03F0326F03F0633430365013418
:1041C000E3B29A42E1D8EB68013A120602F0F852E3
:1041D00023F0F8531343EB602B6923F0F8531A4391
:1041E0002A61F0BC704702B30026331DDBB205EB39
:1041F00083031F6D4C1C14F81640240204F4407411
:1042000027F440773C431C651C6D24F040041C657A
:104210001F6D11F8164004F03F0427F03F073C43A0
:104220001C650136F3B29342DFD303790333DBB26B
:1042300005EB83052B6D427923F0400343EA82139B
:104240002B65CEE798EF000030B593B004460878B0
:10425000384B53F820501378002B65D053684B61CE
:1042600093688B6053782370EB68C3F38153032BFF
:1042700046D005F14C030193536802930B799B00E0
:1042800005930123ADF8183000238DF81D3001206F
:104290008DF81E0002238DF81B308DF81C309378AA
:1042A0008DF81A3000238DF81F308DF820300993D7
:1042B0008DF828008DF829008DF82A308DF82B30E4
:1042C0000B908DF830300D900B783BBB2A238DF886
:1042D0003930D3788DF83A3000238DF84030164AC3
:1042E0000F9211930391EB6843F00103EB602046BA
:1042F00000F046FD01A9204600F02AF913B030BDB8
:1043000005F1E003019353680293042305930B79AD
:10431000ADF8183001238DF81D30B8E7012B04BF2C
:104320002B238DF83930D4E7EB6823F00103EB60E1
:10433000E4E700BF98EF0000413F000002780D4B1A
:1043400053F8223001229A601A6812F0010F0CD142
:10435000094A013A196811F0010F03D1002AF8D176
:10436000022070470AB90220704701221A6000201B
:10437000704700BF98EF0000C0E1E4000278034BF3
:1043800053F8223004229A60704700BF98EF000073
:1043900008B5074A136823F001031360436803B1AB
:1043A0009847034A136843F00103136008BD00BF38
:1043B00000000440084A136843F00543136042F2CA
:1043C0001173054A1268002A03DA013BF9D1012072
:1043D00070470020704700BF002008E008B5064B7A
:1043E00000221A60FFF7E6FF18B9034B01221A609A
:1043F00008BD0120FCE700BF002008E038B50546F5
:10440000002402E00134102C17D0E2B20B4BD96A21
:104410000123A3400B40E340F4D002F00F02074B0E
:104420009A7705F1080353F82430002BEAD005F100
:10443000480252F824009847E4E738BD0080004065
:1044400008B5037803F00F03034AD377C3680BB1B1
:104450008068984708BD00BF0080004030B4294BF9
:104460000021196040221A769A761A779A77DA77BD
:104470009964196559659965D965C8B280F00302D8
:10448000204B1A4482F800014D0105F1804202F5EB
:10449000004402F510400022026041F20400225262
:1044A0002B4441F20C001A5041F210001A5041F214
:1044B00014001A5241F218001A5041F2060022521A
:1044C00041F208001A501A501A5041F21C001A52B8
:1044D00041F21E041A5341F216001A521A531A528C
:1044E00001311029C9D11346074AD15C01F04001BE
:1044F000D154D15C01F0BF01D1540133102BF3D161
:1045000030BC7047008000400010024010B50C46DF
:10451000FF23037043708370C370FFF79FFF0B4A44
:104520001368217823F0100343EA01131360116824
:1045300063789B0003F0040321F004010B43136034
:10454000136843F08003136010BD00BF008000407B
:104550002DE9F04F85B005784B7ECA7D012B36D012
:10456000022B3BD04FF0000C8B7E0A7E012B49D0F2
:10457000022B4ED04FF0000E91F82760002E5CD138
:1045800091F82C80B8F1000F7AD1464600221446EB
:10459000019291F82470002F40F0AE800023029326
:1045A00091F82570002F00F0DF800F7F002F40F082
:1045B000C78091F818900F6927FA09F70EFB07F7E3
:1045C000B1F8149009FB07F77B420393CEE04FF05C
:1045D000010C0CFA02FC1FFA8CFCC5E7042A0ED071
:1045E00006D8032A34BF4FF0040C4FF0000CBBE791
:1045F000052A14BF4FF0000C4FF0200CB4E74FF029
:10460000100CB1E74FF0010E0EFA02FE1FFA8EFEFB
:10461000B2E7042A0ED006D8032A34BF4FF0040EA6
:104620004FF0000EA8E7052A14BF4FF0000E4FF020
:10463000200EA1E74FF0100E9EE78A6A012A1CD9CE
:1046400000240134E4B227460123A3409A42F8D85B
:104650004FF0FF3303FA07F7BA4314BF4FF00108D6
:104660004FF0000891F82C7067B9002E40F07C8361
:10467000002A3ED1B04601928BE700242746E7E7A7
:10468000B04600240F6B012F30D900220132D2B284
:104690009146012393409F42F8D84FF0FF3303FA2D
:1046A00009F937EA090314BF012700271EB18B6AF5
:1046B0006345C0F041830B6B7345C0F03983B8F19B
:1046C000000F02D1002F00F02E83D0F804A00AF1D1
:1046D000FF36002316F8019FB9F1FF0F00F03C836D
:1046E0000133DBB2042BF5D10620DCE20022914637
:1046F000D3E737460022E8E7CF7E6FB991F81790ED
:104700000F6927FA09F70CFB07F7B1F8149009FBBA
:1047100007F77B42029343E7B1F814A091F8179092
:104720000F6927FA09F90CFB09F90AFB09F9C9F124
:1047300000090AF1FF3A0F6A07FB1A9302932FE769
:10474000B1F8149091F818A00F6927FA0AF70EFB38
:1047500007F709FB07F7C7F1000A09F1FF390F6AEC
:1047600007FB19A3039301E0002303934FEA451AC3
:104770000AF1804909F5004709F510490B68C9F8A5
:104780000030DFF83C94CA4441F2100B4B684AF801
:104790000B3091F816A085F0030BD94489F800A1DD
:1047A00091F82790B9F1000F00F0F08091F82C906B
:1047B000B9F1000F32D041F2060937F809B01FFAFB
:1047C0008BFB91F817A04FEA0A2A0AF4E06A2BF44F
:1047D000E06B4AEA0B0A27F809A037F809A0CAF3E8
:1047E0000A0A4AEAC424A4B227F8094037F809A003
:1047F0001FFA8AFA0C7E04F007042AF0070A44EA3A
:104800000A0427F8094037F80940A4B2D200D2B20E
:1048100024F0F804224327F809202BE041F2060295
:1048200037F802A01FFA8AFA91F817904FEA09297F
:1048300009F4E0692AF4E06A49EA0A0927F80290D3
:1048400037F80290C9F30A0949EAC424A4B2BC5259
:1048500037F802901FFA89F90C7E04F0070429F05A
:10486000070944EA0904BC52BC5A24F0F8042404A1
:10487000240CBC52B8F1000F00F068828A6AB2FBC7
:10488000FCF4013C14FB0CF41FFA84F9002E00F038
:10489000D8800A6BB2FBFEF4013C14FB0EF4A4B208
:1048A00044EA094AC64A019B03F1140942F829A0C7
:1048B000D2F848A04FEA4509032404FA09F42AEA89
:1048C000040446EA480606FA09F944EA090494642D
:1048D00002EB451241F21C04165BB6B21B0303F453
:1048E000405326F4405633431353B54C04EB451262
:1048F00041F21C06935B9BB291F8268023F00803DB
:1049000043EAC803935341F2040327F803C041F27A
:10491000140322F803E0236813F0800F00F0A9804D
:10492000CC7E0A7F002C40F08E80002A40F08B80E5
:10493000A34B1B6813F0800F0AD06B0103F1804377
:1049400003F5004341F208041B59002BC0F2F68125
:104950009B4B1B6813F0800F00F08B806B0103F101
:10496000804303F5004341F208041B5913F0804FC4
:1049700000F0D5816B0103F1804303F5004341F260
:1049800008041A59C2F309021A5172E091F82C4036
:104990008CB341F2060437F804A01FFA8AFA91F8A2
:1049A00017904FEA092909F4E0692AF4E06A49EA14
:1049B0000A0927F8049037F80490C9F30A0927F880
:1049C000049037F804A01FFA8AFA91F8189009F0B9
:1049D00007092AF0070A49EA0A0927F8049037F874
:1049E00004901FFA89F9D200D2B229F0F80942EAFC
:1049F00009023A533EE741F2060437F804901FFAE1
:104A000089F9CA7D120202F4E06229F4E06942EAFF
:104A100009023A533A5BC2F30A023A5337F8049058
:104A20001FFA89F90A7E02F0070229F0070942EA13
:104A300009023A533A5B22F0F8021204120C3A537C
:104A400018E700242CE76E0106F1804606F50046C3
:104A500041F2080756F807C0DFF868E10B6A0EEA72
:104A60008323920742EAC4742343CCF3090213431D
:104A7000F3510C69524A126812F0800F28D0504B43
:104A80001B6813F0800F65D14D4B1B6813F0800F2E
:104A900071D000266B0103F1804303F5004341F21E
:104AA00008029B5813F0804F01D1002E63D06A0199
:104AB00002F1804202F5004241F20806935923F4C4
:104AC0007F7323F00303C4F309042343935107E0E6
:104AD0006A0102F1804202F5004241F20803D4501B
:104AE0008B8A012B70D991F83430002B6CD06C017B
:104AF00004F1804404F5004441F21E06A25B6B02FF
:104B000003F4F05346F2FF1C0CEA02021A4342F48B
:104B10000042A25341F21607E25B0CEA0202134381
:104B200043F40043E3538B8AA25B12F4004F31D06D
:104B30006C0104F1804404F50044A25BC3F3080354
:104B400002F47E421A43A253E25B02F47E42134314
:104B5000E35364E06B0103F1804303F5004341F24A
:104B600008029B58002B8FDA154B1B6813F0800F3F
:104B70009DD001268EE76A0102F1804202F50042D3
:104B800041F20807D65906F0404624F04044344329
:104B9000D451A5E76C0104F1804404F5004441F2CE
:104BA0001E06A25BC3F30E0302F400421A43A25393
:104BB00041F21606A25B02F400421343A3532EE017
:104BC0000080004000FCFF3F6B0103F1804303F5D0
:104BD000004341F216041A5BC2F30E021A5341F26B
:104BE0001E041A5BC2F30E021A538A8A1B5B13F46B
:104BF000004F5BD06C0104F1804404F5004441F2A5
:104C00001E06A35BC2F3080203F47E431343A353BF
:104C100041F21606A35B03F47E431A43A2536B01D1
:104C200003F1804303F5004341F20C02029C9C50C7
:104C300041F21802039C9C5091F83520002A4BD178
:104C400002F1804202F50432535D03F040035355F4
:104C500091F83630002B4AD08B6BC3608B68836031
:104C600003785B0103F1804303F5004341F21C0428
:104C70001A5B92B242F002021A5391F83C30002BB8
:104C800046D043680A6C047803EB84039A60436857
:104C9000CA68017803EB81039A64037803F00F0379
:104CA000354A5376002005B0BDE8F08F6C0104F161
:104CB000804404F5004441F21E06A35BC2F30E02D9
:104CC00003F400431343A35341F21606A35B03F41A
:104CD00000431A43A253A2E7284C635D03F040034C
:104CE00002F03F02134343F080036355B0E70378BB
:104CF0005B0103F1804303F5004341F21C041A5B9E
:104D000022F002021204120C1A530023C360B4E70B
:104D10004368027803EB820300209860C3E7002A0F
:104D20007FF428AEA5E63E46B8460023019330E462
:104D30000420B8E70620B6E70420B4E70E4B1B6852
:104D400013F0800F3FF416AE012207E6002E3FF469
:104D5000CCAD4FF000099CE50193042BEAD0019BF8
:104D60000AF803503E4614E48B6A634501D20420DE
:104D700099E70022A3E400BF008000400010024039
:104D800030B4002302E00133042B0DD04268D45C20
:104D900001788C42F7D1FF21D15403F11402394933
:104DA000002441F82240EEE7364B9A6C01784C0023
:104DB0000321A14022EA01029A64027802F00F0264
:104DC0001A76027802F00F029A76027802F00F0249
:104DD0001A77027802F00F029A77027802F00F0237
:104DE000DA7701788031490100225A500178803108
:104DF00003EB41118A80017803EB411141F20C046D
:104E00000A51017803EB411141F210040A51017873
:104E100003EB411141F214040A53017803EB4111F1
:104E200041F218040A510178803103EB4111CA8024
:104E3000047803EB441441F208016250047803EB58
:104E400044146250047803EB44146250017803EB7D
:104E5000411141F21C040A53017803EB411141F264
:104E60001E054A53017803EB411141F216040A531F
:104E7000017803EB41114A53017803EB41131A53B4
:104E800030BC7047008000400378054AD25C12F0C5
:104E90003F0F03F00F03034A0CBF5377D3767047DD
:104EA000001002400080004010B4114C54F8204023
:104EB000206900290CBF00214FF400710AB141F4B0
:104EC0008071012B0CD0014341F00801216140F2B7
:104ED0000F31014041F0080121615DF8044B70473A
:104EE000014341F00A01216108232361F5E700BF76
:104EF000A0EF0000074B53F820305A6912F0807F72
:104F000005D11A6922F001021A61002070470520BC
:104F1000704700BFA0EF0000054B53F820309A699E
:104F200021F0F0018904890C11439961704700BF99
:104F3000A0EF00000E4B53F82000436A012A0CD06A
:104F4000083123FA01F212F0010F04D0012202FA13
:104F500001F123EA010343627047083123FA01F2A9
:104F600012F0010FF7D1012202FA01F10B43F2E72F
:104F7000A0EF00008289072A26D912F0010F26D15E
:104F8000017843789B0743EAC173817843EAC163A0
:104F9000C17843EA0163017943EAC153417943EAA5
:104FA0008153817943EA4153C17943EA0153017A3C
:104FB00043EAC143417A43EA8143807A43EA0040AD
:104FC000531E9BB2184370474FF0FF3070474FF0AD
:104FD000FF307047F0B40278214B53F82230DB6D7C
:104FE000C3F3034713F4702F28D1F0BC7047042596
:104FF0000021C38A9BB2046CCA0026FA02F2E25472
:10500000C38A01339BB2C3824B1CD9B2A942F0D3ED
:10501000C38B15FA83F2418A92FBF1F301FB132350
:105020009BB2C383438B5D1BADB24583438B9BB265
:10503000002BDAD0013F17F0FF07D6D00278084BDB
:1050400053F822305E6F458AC38B9BB204339D4276
:10505000CDDCC38BED1AADB2002DC9D1D8E700BFAE
:10506000A0EF00000278344B53F82230DB6D03F0E0
:105070000F030279D21A038B12F0FF025BD09BB2AE
:10508000002B58D070B431E0038B9BB2012B30D190
:10509000036D23F480130178274A52F82120136608
:1050A00003650023038370BC7047858AADB25E5DE3
:1050B000838A01339BB28382858B14FA85F595FB35
:1050C000F1F301FB135189B2818301781A4B53F834
:1050D00021305E66038B1B1B9BB20383038B9BB249
:1050E000013A12F0FF02DED0002BDCD0437B012B13
:1050F000CAD0418A838B9BB2CB1A042BDDBF838B32
:10510000CB1A9CB20424C36B9BB10129CDD00229D8
:1051100007D0858AADB25E59838A04339BB28382FD
:10512000CAE7858AADB25E5B838A02339BB2838213
:10513000C2E70026C9E77047A0EF000070470000F3
:1051400008B5437B012B08D00023038343834FF42E
:1051500080610078FFF7E0FE08BD036D23F4801343
:105160000178034A52F8212013660365ECE700BF7B
:10517000A0EF00000278034B53F822300222DA61DC
:10518000704700BFA0EF000010B504460023C373B2
:10519000037A012B25D002781C4B53F82220936907
:1051A00023F003039361194A237852F8230083699B
:1051B00023F4E0538361237852F823304FF4E05214
:1051C0005A61012914D0E36A13B10021204698479F
:1051D000A3792BB1A36B0021204698470023A3712C
:1051E00010BD0278094B53F822300022DA61DAE769
:1051F000E36A0BB120469847A379002BF0D0A36B4C
:105200000121204698470023A371E9E7A0EF0000A1
:1052100010B50446FFF7B8FF00230122114620789D
:10522000FFF742FE0023012211462078FFF73CFEE3
:1052300010BD08B5022282730121FFF7E9FF08BD06
:1052400008B501218173FFF7E3FF08BD70B504467F
:105250000E4602782B4B53F822305D6915F4006F2F
:1052600007D0C36B2BB101238373FFF7D1FF092054
:105270001CE015F4805F09D0236C3BB10223A373BB
:1052800031462046FFF7C4FF0A200FE015F0020F59
:1052900002D0638B9BB253B915F0010F02D0238B60
:1052A0009BB243B9238B9BB24BB1082070BD204603
:1052B000FFF790FEF0E72046FFF7D4FEF2E72278F2
:1052C000104B53F82220936923F0010393614FF4AC
:1052D00080612078FFF720FE638B9BB27BB9227838
:1052E000084B53F822305B6913F4806F01D108201A
:1052F000DCE731462046FFF747FF0B20D6E70820C2
:10530000D4E700BFA0EF00002DE9F041A2B00446B1
:105310000E4617461D464FF04408424600210DEB4D
:10532000080009F0D5FB42460021684609F0D0FB91
:10533000002E72D0638A002B00F0A481002D00F0B3
:10534000A581B5FBF3F203FB12539BB2002B40F097
:105350009F81E37BDBB2012B00F09C814FF00008C2
:1053600084F80E804346012211462078FFF79CFD09
:105370004346012211462078FFF796FD2278B64B6E
:1053800053F822304FF47C525A614FF4C0512078C8
:10539000FFF7C2FDE6632764A4F81480A4F8168022
:1053A00094F80880B8F1010F3BD02278AA4B53F84B
:1053B000223002229A65E36B002B00F040812583A6
:1053C000236D23F4802323652278A34B53F82230E6
:1053D000226D1A66236C002B00F048816583236DD3
:1053E00023F40023236522789B4B53F82230226D4F
:1053F0001A660023E383A38363730123E3731FB15E
:1054000002212078FFF788FD002E00F04581012160
:105410002078FFF781FD002035E1002F8AD103209D
:1054200031E122788C4B53F8223003229A6594F8AC
:1054300045308DF85A3000238DF869308DF868308A
:1054400001228DF86A208DF86B308DF87030638AF8
:1054500093420CD0022B2DD002238DF85B308DF8B7
:105460005C3001238DF85F300423199309E0002399
:105470008DF85B308DF85C3001238DF85F30199327
:10548000434695FBF3F2ADF8582000228DF86020DA
:1054900001228DF87A208DF88020139414946F4A9D
:1054A0001F926F4A21922278032A4FD8DFE802F038
:1054B0000C42464A01238DF85B308DF85C308DF844
:1054C0005F3002231993DCE70F218DF8791000215A
:1054D0008DF85E108DF85D105F4951F8222064321E
:1054E00012921593B6B32583119611A9A06CFFF7FC
:1054F0002FF894F844308DF8163000238DF82530BD
:105500008DF8243001228DF826208DF827308DF873
:105510002C30638A934226D0022B46D002238DF88A
:1055200018308DF8173001238DF81C3004230893B0
:10553000984621E011218DF87910C8E713218DF8E4
:105540007910C4E73D218DF87910C0E73D218DF831
:105550007910BCE7002323838DF85F30199304F1A1
:1055600020031193C1E700238DF818308DF8173010
:1055700001238DF81C30089395FBF8F3ADF8143037
:1055800000238DF81B3001238DF836308DF83C3028
:1055900002940394334B0E93334B10932378032BD5
:1055A00040D8DFE803F00D33373B01238DF8183086
:1055B0008DF817308DF81C30022308939846DBE7EE
:1055C0000E228DF8352000228DF819208DF81A2032
:1055D000214A52F8233074330093CDF810802FB352
:1055E000658301976946E06CFEF7B2FF0123E37320
:1055F000E06CFFF749FCA06CFFF746FC2278164BE5
:1056000053F822300322DA6100203CE010228DF8AA
:105610003520D8E712228DF83520D4E73C228DF8CA
:105620003520D0E73C228DF83520CCE7002363837A
:1056300004F1200201928DF81C300893D2E72383F5
:10564000236D43F4802323652278034B53F82230E3
:10565000226D1A66BEE600BFA0EF00007551000083
:10566000ED5A0000E35A0000D55A00006383236D11
:1056700043F4002323652278084B53F82230226D2F
:105680001A66B6E6032022B0BDE8F0810420FAE7EE
:105690000320F8E70520F6E70020F4E7A0EF00007C
:1056A0002DE9F041A2B004460F4616461D464FF0C4
:1056B0004408424600210DEB080009F009FA424671
:1056C0000021684609F004FA638A002B00F09781F4
:1056D000002D00F09881B5FBF3F203FB12539BB24F
:1056E000002B40F092812078B84B53F8202051696C
:1056F000E37BDBB2012B00F08A8111F0807F40F068
:105700008881536913F0807F01D0052078E1002360
:1057100001221146FFF7C8FB002301221146207821
:10572000FFF7C2FB637B002B40D10023A373A74B81
:10573000227853F8222002219165227853F82230F2
:105740004FF47C525A614FF400612078FFF7E4FB7C
:10575000002E35D04FF480512078FFF7DDFB6583B4
:10576000236D23F4002323652278984B53F82230CD
:10577000226D1A6694F80880B8F1010F2DD0E76306
:1057800026640023A382E382A383E3832583637BD0
:10579000012B00F029810123E373002E00F0298101
:1057A00003212078FFF7B8FB002029E1236D43F4A3
:1057B00080132178854A52F8212013662365B4E7C7
:1057C00000236383236D43F40023236522787F4BFA
:1057D00053F82230226D1A66CCE794F845308DF8E4
:1057E0005A3000238DF869308DF8683001228DF829
:1057F0006A208DF86B308DF87030638A93420CD03C
:10580000022B2DD002238DF85B308DF85C30012304
:105810008DF85F300423199309E000238DF85B3085
:105820008DF85C3001238DF85F301993434695FB6A
:10583000F3F2ADF8582000228DF8602001228DF897
:105840007A208DF8802013941494614A1F92614A43
:1058500021922278032A51D8DFE802F00C44484C08
:1058600001238DF85B308DF85C308DF85F300223BA
:105870001993DCE70F218DF8791000218DF85E1067
:105880008DF85D10514951F822206432129215931F
:10589000C7B3119711A9A06CFEF75AFE002E00F0B5
:1058A000BA8094F844308DF8163000238DF82530F6
:1058B0008DF8243001228DF826208DF827308DF8C0
:1058C0002C30638A934225D0022B45D002238DF8D9
:1058D00018308DF8173001238DF81C3004230893FD
:1058E000984620E011218DF87910C6E713218DF834
:1058F0007910C2E73D218DF87910BEE73D218DF882
:105900007910BAE700238DF85F3004F1200211927C
:105910001993BFE700238DF818308DF81730012355
:105920008DF81C30089395FBF8F5ADF81450002362
:105930008DF81B3001238DF836308DF83C30029401
:105940000394254B0E93254B10932378032B47D8B4
:10595000DFE803F00D30343801238DF818308DF86E
:1059600017308DF81C30022308939846DBE70E228F
:105970008DF8352000258DF81A508DF81950134FE9
:1059800057F82330743300930196CDF810806946A0
:10599000E06CFEF7DDFDE06CFFF776FAA06CFFF738
:1059A00073FA0123E373237857F823300322DA6173
:1059B000284625E010228DF83520DBE712228DF8ED
:1059C0003520D7E73C228DF83520D3E7A0EF000043
:1059D00041510000415200003D510000335200008F
:1059E0003C228DF83520C5E7238B01339BB22383FE
:1059F000D1E601212078FFF78FFA002000E0032094
:105A000022B0BDE8F0810420FAE70320F8E7052082
:105A1000F6E70520F4E7A06CFFF736FA0123E373FD
:105A20002178034A52F82120D3610020E8E700BF23
:105A3000A0EF000010B504460023C373037A012BC6
:105A400031D00278224B53F82220936923F00303CC
:105A500093611F4A237852F82300836923F4C053CB
:105A60008361237852F823304FF4C0525A610129E0
:105A700020D0E36A13B1002120469847A3792BB1C7
:105A8000A36B0021204698470023A3710023012225
:105A900011462078FFF708FA0023012211462078EA
:105AA000FFF702FA10BD0278094B53F822300022AA
:105AB000DA61CEE7E36A0BB120469847A379002B61
:105AC000E4D0A36B0121204698470023A371DDE7B2
:105AD000A0EF000008B5022282730121FFF7AAFFA0
