:1000000000180002BD03000029040000D13D0000DB
:100010002904000029040000290400000000000059
:10002000000000000000000000000000A12400000B
:10003000290400000000000041250000A525000063
:100040007D9900008D990000B59B0000C59B0000C4
:10005000D59B0000E59B0000F59B0000059C00007F
:1000600029040000290400002904000029040000DC
:1000700029040000290400002904000029040000CC
:10008000159C000029040000290400002904000038
:100090003D9A00004D9A0000290400002904000048
:1000A0002904000029040000859B0000959B0000A6
:1000B000A59B000029040000290400002904000079
:1000C000290400002904000029040000290400007C
:1000D0002904000029040000290400005D9A0000A2
:1000E00029040000290400007D9A00008D9A000078
:1000F0002904000029040000290400006D9A000072
:10010000BD990000CD990000DD990000ED99000037
:10011000FD990000290400002904000029040000C2
:10012000290400002904000029040000290400001B
:10013000290400009D990000AD99000029040000E9
:1001400029040000290400002D9A00000D9A0000E7
:100150001D9A000029040000290400002904000061
:1001600029040000290400002904000029040000DB
:1001700029040000290400002904000029040000CB
:1001800029040000290400002904000029040000BB
:1001900029040000290400002904000029040000AB
:1001A000290400002904000029040000290400009B
:1001B000290400002904000029040000290400008B
:1001C000290400002904000029040000290400007B
:1001D000290400002904000029040000290400006B
:1001E000290400002904000029040000290400005B
:1001F000290400002904000029040000290400004B
:10020000290400002904000029040000290400003A
:10021000290400002904000029040000290400002A
:10022000290400002904000029040000290400001A
:10023000290400002904000029040000290400000A
:1002400029040000290400002904000029040000FA
:1002500029040000290400002904000029040000EA
:1002600029040000290400002904000029040000DA
:1002700029040000290400002904000029040000CA
:1002800029040000290400002904000029040000BA
:1002900029040000290400002904000029040000AA
:1002A000290400002904000029040000290400009A
:1002B000290400002904000029040000290400008A
:1002C000290400002904000029040000290400007A
:1002D000290400002904000029040000290400006A
:1002E000290400002904000029040000290400005A
:1002F000290400002904000029040000290400004A
:100300002904000029040000290400002904000039
:100310002904000029040000290400002904000029
:1003200029040000FFFFFFFFF0B400EB4003DFF8FB
:10033000880000EBC30000F118063069F7687568A3
:10034000874232D3B368DC1B631E934214D37D19FA
:10035000D01900BF11F8013B05F8013B013A05D067
:1003600011F8013B05F8013B013AF3D1BFF35F8F70
:10037000F0600120F0BC7047C018904219D3781982
:10038000121B11F8013B00F8013B013CF9D1141C90
:1003900005D011F8013B05F8013B013AF9D1BFF353
:1003A0005F8FF4600120F0BC7047C01B01389042A1
:1003B000CDD20020F0BC7047C491002072B64FF03F
:1003C00000014FF000024FF000034FF000044FF027
:1003D00000054FF000064FF00007B846B946BA4690
:1003E000BB46BC460A480B4901600B4885460B4A90
:1003F000094C002301E013600432A242FBD30848F9
:1004000080470848804762B60DF08CFEFEE700008A
:1004100008ED00E0000000000018000200080002E3
:10042000313E0000D93D0000FFF7FEBF81F00041E2
:1004300002E000BF83F0004330B54FEA41044FEAC9
:10044000430594EA050F08BF90EA020F1FBF54EA64
:10045000000C55EA020C7FEA645C7FEA655C00F000
:10046000E2804FEA5454D4EB5555B8BF6D420CDDD1
:100470002C4480EA020281EA030382EA000083EA54
:10048000010180EA020281EA0303362D88BF30BDF4
:1004900011F0004F4FEA01314FF4801C4CEA11314A
:1004A00002D0404261EB410113F0004F4FEA0333A9
:1004B0004CEA133302D0524263EB430394EA050F34
:1004C00000F0A780A4F10104D5F1200E0DDB02FAA3
:1004D0000EFC22FA05F2801841F1000103FA0EF237
:1004E000801843FA05F359410EE0A5F120050EF1FD
:1004F000200E012A03FA0EFC28BF4CF0020C43FA2E
:1005000005F3C01851EBE37101F0004507D54FF03A
:10051000000EDCF1000C7EEB00006EEB0101B1F58A
:10052000801F1BD3B1F5001F0CD349085FEA3000D0
:100530004FEA3C0C04F101044FEA445212F5800FDB
:1005400080F09A80BCF1004F08BF5FEA500C50F178
:10055000000041EB045141EA050130BD5FEA4C0C5B
:10056000404141EB0101013C28BFB1F5801FE9D2B8
:1005700091F0000F04BF01460020B1FA81F308BFDB
:100580002033A3F10B03B3F120020CDA0C3208DDA7
:1005900002F1140CC2F10C0201FA0CF021FA02F182
:1005A0000CE002F11402D8BFC2F1200C01FA02F1F2
:1005B00020FA0CFCDCBF41EA0C019040E41AA2BF17
:1005C00001EB0451294330BD6FEA04041F3C1CDADF
:1005D0000C340EDC04F11404C4F1200220FA04F0FF
:1005E00001FA02F340EA030021FA04F345EA0301A9
:1005F00030BDC4F10C04C4F1200220FA02F001FA6B
:1006000004F340EA0300294630BD21FA04F02946EC
:1006100030BD94F0000F83F4801306BF81F4801185
:100620000134013D4EE77FEA645C18BF7FEA655CF8
:1006300029D094EA050F08BF90EA020F05D054EACA
:10064000000C04BF1946104630BD91EA030F1EBFCF
:100650000021002030BD5FEA545C05D140004941D3
:1006600028BF41F0004130BD14F580043CBF01F5C6
:10067000801130BD01F0004545F0FE4141F47001AC
:100680004FF0000030BD7FEA645C1ABF1946104687
:100690007FEA655C1CBF0B46024650EA013406BF88
:1006A00052EA033591EA030F41F4002130BD00BF47
:1006B00090F0000F04BF0021704730B54FF4806404
:1006C00004F132044FF000054FF0000150E700BF85
:1006D00090F0000F04BF0021704730B54FF48064E4
:1006E00004F1320410F0004548BF40424FF00001D1
:1006F0003EE700BF42004FEAE2014FEA31014FEA14
:1007000002701FBF12F07F4393F07F4F81F0605162
:10071000704732F07F4208BF704793F07F4F04BFAD
:1007200041F40021704730B54FF4607401F000458A
:1007300021F000411CE700BF50EA010208BF7047EA
:1007400030B54FF000050AE050EA010208BF7047DB
:1007500030B511F0004502D5404261EB41014FF444
:10076000806404F132045FEA915C3FF4D8AE4FF04C
:1007700003025FEADC0C18BF03325FEADC0C18BF2F
:10078000033202EBDC02C2F1200300FA03FC20FA80
:1007900002F001FA03FE40EA0E0021FA02F11444CD
:1007A000BDE600BF70B54FF0FF0C4CF4E06C1CEAE6
:1007B00011541DBF1CEA135594EA0C0F95EA0C0F57
:1007C00000F0DEF82C4481EA030621EA4C5123EACA
:1007D0004C5350EA013518BF52EA033541F48011F9
:1007E00043F4801338D0A0FB02CE4FF00005E1FBAC
:1007F00002E506F00042E0FB03E54FF00006E1FBF6
:1008000003569CF0000F18BF4EF0010EA4F1FF0438
:10081000B6F5007F64F5407404D25FEA4E0E6D4178
:1008200046EB060642EAC62141EA55514FEAC52089
:1008300040EA5E504FEACE2EB4F1FD0C88BFBCF505
:10084000E06F1ED8BEF1004F08BF5FEA500E50F1B6
:10085000000041EB045170BD06F0004646EA01017C
:1008600040EA020081EA0301B4EB5C04C2BFD4EBAE
:100870000C0541EA045170BD41F480114FF0000EA7
:10088000013C00F3AB8014F1360FDEBF002001F015
:10089000004170BDC4F10004203C35DA0C341BDC8F
:1008A00004F11404C4F1200500FA05F320FA04F061
:1008B00001FA05F240EA020001F0004221F0004195
:1008C00010EBD37021FA04F642EB06015EEA430E08
:1008D00008BF20EAD37070BDC4F10C04C4F1200538
:1008E00000FA04F320FA05F001FA04F240EA0200EB
:1008F00001F0004110EBD37041F100015EEA430EBC
:1009000008BF20EAD37070BDC4F1200500FA05F2DB
:100910004EEA020E20FA04F301FA05F243EA02035A
:1009200021FA04F001F0004121FA04F220EA020069
:1009300000EBD3705EEA430E08BF20EAD37070BDAF
:1009400094F0000F0FD101F00046400041EB01018F
:1009500011F4801F08BF013CF7D041EA060195F071
:10096000000F18BF704703F00046520043EB03032B
:1009700013F4801F08BF013DF7D043EA0603704718
:1009800094EA0C0F0CEA135518BF95EA0C0F0CD023
:1009900050EA410618BF52EA4306D1D181EA030169
:1009A00001F000414FF0000070BD50EA410606BF63
:1009B0001046194652EA430619D094EA0C0F02D1A8
:1009C00050EA013613D195EA0C0F05D152EA0336ED
:1009D0001CBF104619460AD181EA030101F000410B
:1009E00041F0FE4141F470014FF0000070BD41F054
:1009F000FE4141F4780170BD70B54FF0FF0C4CF42E
:100A0000E06C1CEA11541DBF1CEA135594EA0C0F4C
:100A100095EA0C0F00F0A7F8A4EB050481EA030E99
:100A200052EA03354FEA013100F088804FEA033380
:100A30004FF0805545EA131343EA12634FEA02224E
:100A400045EA111545EA10654FEA00260EF000410F
:100A50009D4208BF964244F1FD0404F5407402D261
:100A60005B084FEA3202B61A65EB03055B084FEAF2
:100A700032024FF480104FF4002CB6EB020E75EBEF
:100A8000030E22BFB61A754640EA0C005B084FEA17
:100A90003202B6EB020E75EB030E22BFB61A754694
:100AA00040EA5C005B084FEA3202B6EB020E75EBDF
:100AB000030E22BFB61A754640EA9C005B084FEA57
:100AC0003202B6EB020E75EB030E22BFB61A754664
:100AD00040EADC0055EA060E18D04FEA051545EA53
:100AE00016754FEA06164FEAC30343EA52734FEAFC
:100AF000C2025FEA1C1CC0D111F4801F0BD141EA75
:100B000000014FF000004FF0004CB6E711F4801FD9
:100B100004BF01430020B4F1FD0C88BFBCF5E06FB9
:100B20003FF6AFAEB5EB030C04BFB6EB020C5FEAC9
:100B3000500C50F1000041EB045170BD0EF0004E1E
:100B40004EEA113114EB5C04C2BFD4EB0C0541EA50
:100B5000045170BD41F480114FF0000E013C90E64D
:100B600045EA060E8DE60CEA135594EA0C0F08BF11
:100B700095EA0C0F3FF43BAF94EA0C0F0AD150EA10
:100B800001347FF434AF95EA0C0F7FF425AF1046A3
:100B900019462CE795EA0C0F06D152EA03353FF4CB
:100BA000FDAE1046194622E750EA410618BF52EA48
:100BB00043067FF4C5AE50EA41047FF40DAF52EA1C
:100BC00043057FF4EBAE12E74FF0FF3C06E000BFB9
:100BD0004FF0010C02E000BF4FF0010C4DF804CDC6
:100BE0004FEA410C7FEA6C5C4FEA430C18BF7FEA86
:100BF0006C5C1BD001B050EA410C0CBF52EA430CB4
:100C000091EA030F02BF90EA020F0020704710F133
:100C1000000F91EA030F58BF994208BF90422CBFC2
:100C2000D8176FEAE37040F0010070474FEA410CBB
:100C30007FEA6C5C02D150EA013C07D14FEA430CD9
:100C40007FEA6C5CD6D152EA033CD3D05DF8040B4A
:100C5000704700BF8446104662468C46194663467C
:100C600000E000BF01B5FFF7B7FF002848BF10F153
:100C7000000F01BD4DF808EDFFF7F4FF0CBF012098
:100C800000205DF808FB00BF4DF808EDFFF7EAFF14
:100C900034BF012000205DF808FB00BF4DF808EDCF
:100CA000FFF7E0FF94BF012000205DF808FB00BFC4
:100CB0004DF808EDFFF7CEFF94BF012000205DF84E
:100CC00008FB00BF4DF808EDFFF7C4FF34BF01205B
:100CD00000205DF808FB00BF4FEA4102B2F1E0439B
:100CE00024BFB3F5001CDCF1FE5C0DD901F0004C13
:100CF0004FEAC0024CEA5070B2F1004F40EB830063
:100D000008BF20F00100704711F0804F21D113F18E
:100D10003872BCBF01F00040704741F480114FEAC7
:100D20005252C2F11802C2F1200C10FA0CF320FA50
:100D300002F018BF40F001004FEAC1234FEAD3236D
:100D400003FA0CFC40EA0C0023FA02F34FEA4303D7
:100D5000CCE77FEA625307D150EA01331EBF4FF060
:100D6000FE4040F44000704701F0004040F0FE407B
:100D700040F40000704700BF844641EA000313F0CE
:100D800003036DD1403A41D351F8043B40F8043B92
:100D900051F8043B40F8043B51F8043B40F8043B55
:100DA00051F8043B40F8043B51F8043B40F8043B45
:100DB00051F8043B40F8043B51F8043B40F8043B35
:100DC00051F8043B40F8043B51F8043B40F8043B25
:100DD00051F8043B40F8043B51F8043B40F8043B15
:100DE00051F8043B40F8043B51F8043B40F8043B05
:100DF00051F8043B40F8043B51F8043B40F8043BF5
:100E000051F8043B40F8043B403ABDD2303211D394
:100E100051F8043B40F8043B51F8043B40F8043BD4
:100E200051F8043B40F8043B51F8043B40F8043BC4
:100E3000103AEDD20C3205D351F8043B40F8043B94
:100E4000043AF9D2043208D0D2071CBF11F8013B92
:100E500000F8013B01D30B8803806046704700BF58
:100E6000082A13D38B078DD010F003038AD0C3F167
:100E70000403D21ADB071CBF11F8013B00F8013B49
:100E800080D331F8023B20F8023B7BE7043AD9D308
:100E9000013A11F8013B00F8013BF9D20B780370DD
:100EA0004B7843708B788370604670470000000079
:100EB0000000000000000000000000000000000032
:100EC000A2EB0300704700BF02780B78012A28BF0D
:100ED0009A42F5D16DE9044540EA0104CDE9026783
:100EE0006FF0000C4FEA447212B380EA010414F070
:100EF000070F6AD100F0070420F0070004F0030593
:100F000021F007014FEAC505F0E8042314F0040FAF
:100F1000F1E804670CFA05F462EA040266EA0406E2
:100F20000AD063EA0403624667EA0407664603E000
:100F3000F0E80423F1E8046782FA4CF582EA06043B
:100F4000A4FA8CF46CBB83FA4CF583EA0705A5FA86
:100F50008CF595B950E9022351E9026782FA4CF504
:100F600082EA0604A4FA8CF483FA4CF583EA0705B6
:100F7000A5FA8CF52543DBD09CB92DBAB5FA85F4DA
:100F800024F0070427FA04F1DDE9026723FA04F3E9
:100F900003F0FF0001F0FF01FDE80445A0EB0100B4
:100FA000704724BAB4FA84F424F0070426FA04F152
:100FB000DDE9026722FA04F202F0FF0001F0FF010E
:100FC000FDE80445A0EB0100704714F0030F3CD18D
:100FD00010F0030428D150F8082B51F8083B82FA8E
:100FE0004CF582EA0305A5FA8CF55DB950F8042C9E
:100FF00051F8043C82FA4CF582EA0305A5FA8CF517
:10100000002DE8D02DBAB5FA85F424F0070423FAB0
:1010100004F122FA04F202F0FF0001F0FF01FDE802
:101020000445A0EB010070474FEAC40420F0030020
:1010300050F8082B21F0030151F8083B0CFA04F496
:1010400062EA040263EA0403C9E710F003041AD059
:10105000A1EB040120F00300E40750F8042B06D0B4
:101060000FD28B785FFAA2F4E41A06D12BB1CB78B9
:101070005FFAB2F4E41A00D11BB920465DF8104BB8
:10108000704701F1040150F8042BCC0721F0030153
:1010900051F8043B48D824D222F07F4482FA4CF520
:1010A00094EA1325A5FA8CF50AD165B951F8043BE9
:1010B00084EA0204B4EB036F0ED150F8042BEBE783
:1010C0004FEA132355E035F07F454DD10878FDE810
:1010D0000445C0F1000070474FEA126203F0FF03BD
:1010E00047E002EA1C4482FA4CF594EA1345A5FA5B
:1010F0008CF50AD165B951F8043B84EA0204B4EBDB
:10110000034F0CD150F8042BEBE74FEA134330E0C8
:1011100015EA1C4528D10B884FEA124229E04FEA14
:10112000124203EA1C4324E002F0FF0482FA4CF569
:1011300094EA1365A5FA8CF50AD165B951F8043B18
:1011400084EA0204B4EB032F09D150F8042BEBE737
:101150004FEA13630DE015F0FF0F05D10B684FEA5E
:10116000122223F07F4304E04FF00000FDE8044525
:10117000704712BA1BBA82FA4CF482EA0304A4FA4A
:101180008CF5B5FA85F402FA04F203FA04F34FEA97
:101190001260FDE80445A0EB1360704700B583B012
:1011A00001F032FD0190012101A801F055FEFAE79E
:1011B00000B583B001F028FD019009E01A4B1B78BF
:1011C000DBB2012B17D0184B1B78DBB2022B22D0DD
:1011D000642101A801F040FE144B1B78642BEDD86C
:1011E0000133DBB2114A1370642BE7D10E4B1B782D
:1011F000DBB2022BE2D009F08DFD0028E8D109F026
:1012000091FDDFED0B0A9FED0B0A09F093FD012024
:1012100009F0DAFCDCE709F07DFD0028D8D00020D9
:1012200009F0D2FCD4E700BFC00C0020C10C0020A4
:101230009A99993E0000000000B583B00CF03AFF87
:1012400001F0E2FC0190052101A801F005FEFAE79A
:1012500000B583B001F0D8FC01900A2101A801F08B
:10126000FBFD09F0E7F9F8E700B583B001F0CCFC2D
:101270000190052101A801F0EFFD052101A801F071
:10128000EBFD01F0C1FC0190052101A801F0E4FD96
:1012900001F0FEFF09F0BEF9F6E700B583B001F0FA
:1012A000B3FC0190032101A801F0D6FD012101A8A2
:1012B00001F0D2FD08F032FD0AF040FFF6E74FF0F2
:1012C000200383F31188BFF36F8FBFF34F8FFEE7C7
:1012D00030B583B000F0F6F80024019405230093A4
:1012E00023464FF4C8721C491C4801F02FFB01949F
:1012F0000A25009523464FF416721949194801F042
:1013000025FB0194009523464FF4C87216491748EF
:1013100001F01CFB0194009523464FF4C872144958
:10132000144801F013FB01940823009323464FF463
:10133000C8721149114801F009FB0194012300937F
:1013400023464FF4C8720E490E4801F0FFFA01F02F
:10135000FFFB03B030BD00BFD4E400009B120000CF
:10136000E0E4000069120000ECE40000511200000B
:10137000FCE400009D11000008E5000039120000A7
:1013800014E50000B1110000034B1B78642B9ABFD9
:101390000370002001207047018E0020B0F5805FAF
:1013A0003DBF024B18800020012070472A8E00208C
:1013B000B0F5805F3DBF024B1880002001207047D0
:1013C0002C8E0020B0F5805F3DBF024B18800020BE
:1013D000012070472E8E0020431E044A073013F868
:1013E000011F02F8011F8342F9D17047C30C00208E
:1013F000014B1870704700BFCC0C0020038C03EB2E
:1014000043010C4A02EB4102927892B910B50446AE
:10141000084A02EB41035B7803B110BD08F032FDCE
:101420000128FAD108F03AFD012804BF01232377EF
:10143000F3E7704724E5000000EB4002194B13F876
:1014400012306BBBF0B58FB004460D461346154AFB
:1014500002EB43039B78012B01D00FB0F0BD08F0E5
:1014600017FD0128F9D108F01FFD0128F5D1DFF89B
:1014700038C004EB44040B4F07EB44076C460CF1F7
:1014800008060FCE0FC40FCE0FC40FCE0FC43368A3
:1014900023609CE80C002946B88807F0B5FCDCE71F
:1014A000704700BF24E500006803002008B503482A
:1014B00000F028FD024800F025FD08BD8CE5000085
:1014C000C8E5000008B5064B1868064B064A0146F9
:1014D00000F0BCF94FF0005000F0EEF908BD00BF7D
:1014E00018080120AD14000030E6000010B501F02E
:1014F00091FB04464201C30E121A63F100039900E6
:1015000041EA92719000001941F10001CB0043EAD9
:101510005073C2001046194610BDF0B587B007469B
:101520000E4615461C461822002168460CF056FF50
:1015300000970196029503940C9B0493684600F073
:1015400071FC07B0F0BD0000F0B583B005460C4655
:1015500016461F460522134920460CF00FFFD0B156
:10156000114B1A68072A18D8104B02EB820003EBC4
:10157000800143F820504C608E60CF60089B0B6167
:101580000132094B1A60089B00933B4632462146C4
:101590002846FFF7C2FF03B0F0BD054800F002FE89
:1015A000F9E700BFD8E50000D00C0020D40C0020E3
:1015B000E0E500000B4B1B689BB130B583B00A4CD3
:1015C000002523690093E368A26861682068FFF73B
:1015D000A4FF01351434034B1B68AB42F1D803B0B0
:1015E00030BD7047D00C0020D40C002038B5174C0B
:1015F000A822002120460CF0F1FE03232361636141
:10160000134AA261134BE3614FF48063236200230A
:10161000A3626362E36222660F4A62661022A266D8
:101620002367E3666367BFF35F8F0C4800F10F0326
:1016300000F10F01C91A93F90050044C655483421C
:1016400003F1FF33F4D1BFF35F8F38BDC4910020A5
:1016500038E60000840D0020740D002044E60000F0
:101660002DE9F0470446894617462A4B1B785BB2A2
:10167000532B28D104EB4403264A02EBC3031E6F0D
:10168000D3F86C80464521D8A8EB0605BD4228BF9B
:101690003D46ADB14FF0000804EB44031D4A02EB98
:1016A000C303596E2A4631444846FFF765FB2E4472
:1016B00045442DB104EB4404164B03EBC4042667E8
:1016C0002846BDE8F087FFF791FFD3E704EB440A13
:1016D00002EBCA0ADAF86850AD1BBD4228BF3D468E
:1016E000DAF864102A4631444846FFF745FB7F1B71
:1016F0002E44DAF86830B34208BF0026A8EB06088B
:10170000474528BF4746002FD3D0A944A8463D46A9
:10171000C2E700BFC49100202DE9F04180460F468A
:1017200016461D461E4B1B785BB2532B32D1EFF38E
:1017300011824FF0200181F311880020441C04EB3A
:101740004404174B03EBC404636823B10130144B0A
:101750001B698342F2DC124B1B6983421DDD104B77
:10176000411C01EB4104E40043F8048001EB41011A
:1017700003EBC1014F6000EB400103EBC1031E62AC
:10178000002199625962DD62BFF35F8F82F3118895
:10179000BDE8F081FFF72AFFC9E74FF0FF30F5E71A
:1017A000C49100202DE9F0410446884617461E46A4
:1017B000164B187840B2532822D1022C23D8EFF3CD
:1017C00011834FF0200181F311885CB104EB4400D8
:1017D0000E4D05EBC000C0F86080476686660022AB
:1017E0000267C26604EB4404084800EBC404069A8E
:1017F0006267BFF35F8F83F311880020BDE8F0813B
:10180000FFF7F4FED9E74FF0FF30F7E7C49100206F
:1018100070B40446B1B10E4601301546802A28BF87
:1018200080255AB10B46194613F9012B32B11946DE
:1018300000F8012B6A1C22449042F4D1891B2170CC
:1018400070BC7047002300F8013BF9E72DE9F04731
:1018500082B007460E4690461D46DFF8589000239A
:101860004FF400520F494846FFF756FFC0B20E4CE6
:10187000607020764FF0000ACDF800A008230B4AD4
:101880004946FFF78FFFC4F810A0094B1B68E360BF
:10189000C4F820806760A660656284F800A002B08A
:1018A000BDE8F087B81100209011002084110020BD
:1018B000041000E058E60000014B1861704700BFBB
:1018C0009011002008B5034B1B6A13B15B6803B18C
:1018D000984708BD9011002010B5064B1C681CB934
:1018E00010BD2469002CFBD0E368002BF9D0984789
:1018F000F7E700BF9C32002010B5EFF311844FF0E2
:10190000200181F311880B4B1B787F2B0ED90A49DC
:1019100063F07F02CA71DA09083101F8012B1B223A
:10192000064800F0B7F884F3118810BD1A46034941
:10193000F3E700BF8C110020B8310020BF31002038
:1019400038B52A4D01232B70EFF311844FF020019D
:1019500081F311880A2226496878FEF7E5FC84F3B2
:1019600011880A2000F08EF9EFF311844FF0200166
:1019700081F311886B687F2B36D91E4963F07F0293
:1019800001F8012BDB097F2BF8D801F8013B174B3D
:101990009B687F2B06D963F07F0201F8012BDB09DE
:1019A0007F2BF8D801F8013B104B1B697F2B06D920
:1019B00063F07F0201F8012BDB097F2BF8D80B7055
:1019C00000234B70182202310A4800F063F884F3B8
:1019D0001188064B5B6A03B1984700F0AFF9FFF737
:1019E00071FFFFF789FF38BD0249CEE79011002053
:1019F00060E60000BF31002000B583B001220DF188
:101A00000701234B187EFFF72BFE00B39DF807302C
:101A1000072B09D8DBB15A1E062A2DD8DFE802F0C1
:101A2000151A1D20232629007F2B10D0802B23D1AF
:101A300001220DF10701164B187EFFF711FE30B1A0
:101A40009DF8070000F06EFB01E0FFF779FF03B09F
:101A50005DF804FB00F08AF9F9E700F06FF9F6E7AA
:101A6000FFF730FFF3E700F09BF9F0E7FFF744FFE3
:101A7000EDE7FFF731FFEAE713F0800FE7D001222F
:101A80000DF10701024B187EFFF7EAFDDFE700BF0B
:101A900090110020F0B585B006460C461546764BF1
:101AA0001B78012B02D043B3022B3CD01F2D05D84D
:101AB000714BDB69EB4013F0010F1ED1172D6DD870
:101AC000711E06F8015C6D4B1D686B4BDB68EB1AF1
:101AD0007F2B06D963F07F0204F8012BDB097F2BF3
:101AE000F8D804F8013B621A634B5878FEF71CFCE7
:101AF000002800F0B380604BDD605F4B1B7E604AC6
:101B000003EB430102EBC101C96E03EB430302EB9C
:101B1000C3031B6F994204D0574B9B78002B00F0F6
:101B2000A28005B0F0BD01238DF80430524B5B69F3
:101B30007F2B2BD90DF1050263F07F0102F8011B09
:101B4000DB097F2BF8D802F8013B4C4B1F684A4B4E
:101B5000DB68FB1A7F2B06D963F07F0102F8011BBB
:101B6000DB097F2BF8D802F8013B01A9521A424B3E
:101B70005878FEF7D9FB60B13F4BDF601A78013A25
:101B80001A703D4B1B78012BB7D18FE70DF1050281
:101B9000D9E7394A536901335361F2E7A31B7F2B1D
:101BA0000DD9DA0906F8012CB21E63F07F0306F89E
:101BB000023C7E2D07D8511E02F8015C83E7721E9D
:101BC00006F8013CF5E7B5F5804F08D2EB0902F8BD
:101BD000013C911E65F07F0502F8025C73E7B5F5E4
:101BE000001F0DD2AB0B02F8013CEB0963F07F0341
:101BF00002F8023CD11E65F07F0502F8035C62E743
:101C0000B5F1805F12D26B0D02F8013CAB0B63F0B3
:101C10007F0302F8023CEB0963F07F0302F8033C08
:101C2000111F65F07F0502F8045C4CE72B0F02F8EA
:101C3000013C6B0D63F07F0302F8023CAB0B63F0D9
:101C40007F0302F8033CEB0963F07F0302F8043CD6
:101C5000511F65F07F0502F8055C34E7064A1378EA
:101C60000133137049E7044C0123A370FFF7C4FE4E
:101C70000023A37055E700BF90110020041000E07E
:101C8000C491002010B50246EFF311844FF02001FB
:101C900081F3118803480146FFF7FCFE84F31188A5
:101CA00010BD00BFBF31002038B502460B46EFF330
:101CB00011854FF0200181F311887F2B0FD909493D
:101CC00063F07F0401F8014BDB097F2BF8D801F8A2
:101CD000013B0448FFF7DEFE85F3118838BD01495A
:101CE000F5E700BFBF31002038B50B46EFF3118593
:101CF0004FF0200181F311887F2B1BD90E4963F02F
:101D00007F0401F8014BDB097F2BF8D801F8013B78
:101D10007F2A06D962F07F0301F8013BD2097F2AAE
:101D2000F8D801F8012B02460348FFF7B3FE85F30C
:101D3000118838BD0049E9E7BF31002008B5094BDB
:101D40001B6A43B11B6833B198470A4601460D2010
:101D5000FFF7CAFF08BD044B19680C20FFF7A4FF6A
:101D6000F8E700BF90110020041000E010B5EFF379
:101D700011844FF0200181F31188074B1B7813B9B0
:101D800084F3118810BD05480B220146FFF782FE3F
:101D9000014B00221A70F3E790110020BF310020A0
:101DA00010B5EFF311844FF0200181F311881B4B24
:101DB0005B687F2B30D91A4963F07F0201F8012B51
:101DC000DB097F2BF8D801F8013B144B9B687F2B74
:101DD00006D963F07F0201F8012BDB097F2BF8D8CD
:101DE00001F8013B0D4B1B697F2B06D963F07F0285
:101DF00001F8012BDB097F2BF8D80B7000234B7007
:101E0000182202310648FFF745FE84F31188034B80
:101E10005B6A03B1984710BD0149D4E790110020D7
:101E2000BF31002038B50546EFF311844FF0200193
:101E300081F311880368314A12699B1A7F2B59D9A3
:101E40002F4863F07F0200F8012BDB097F2BF8D8C5
:101E500000F8013BAB687F2B06D963F07F0200F8E6
:101E6000012BDB097F2BF8D800F8013B20226968A1
:101E7000FFF7CEFC014609222148FFF70BFE2B6835
:101E80001E4A12699B1A7F2B36D91D4963F07F02C7
:101E900001F8012BDB097F2BF8D801F8013BEB6837
:101EA0007F2B06D963F07F0201F8012BDB097F2B22
:101EB000F8D801F8013B2B697F2B06D963F07F022C
:101EC00001F8012BDB097F2BF8D801F8013B6B6986
:101ED0007F2B06D963F07F0201F8012BDB097F2BF2
:101EE000F8D801F8013B15220548FFF7D3FD84F32C
:101EF000118838BD0248ABE70149CEE790110020B8
:101F0000BF31002038B5EFF311854FF0200181F388
:101F10001188074C802201462046FFF779FC0146D4
:101F20000E222046FFF7B6FD85F3118838BD00BFAD
:101F3000BF31002010B5EFF311844FF0200181F381
:101F400011880C4B1A68C2F3080312F4C07F0ED03C
:101F5000094963F07F02CA71DB09083101F8013BCE
:101F600002220648FFF796FD84F3118810BD03494D
:101F7000F4E700BF04ED00E0B8310020BF310020DD
:101F800010B5EFF311844FF0200181F3118804485C
:101F900003220146FFF77EFD84F3118810BD00BFC8
:101FA000BF31002010B5EFF311844FF0200181F311
:101FB0001188044812220146FFF76CFD84F3118852
:101FC00010BD00BFBF31002010B5EFF311844FF0FA
:101FD000200181F31188044811220146FFF75AFDC0
:101FE00084F3118810BD00BFBF31002010B5EFF39E
:101FF00011844FF0200181F311880C4B1B69C01A2A
:102000007F2810D90A4960F07F0301F8013BC0091D
:102010007F28F8D801F8010B08220548FFF73AFDA0
:1020200084F3118810BD0249F4E700BF901100202D
:10203000BF31002010B5EFF311844FF0200181F380
:1020400011880C4B1B69C01A7F2810D90A4960F00F
:102050007F0301F8013BC0097F28F8D801F8010B84
:1020600004220548FFF716FD84F3118810BD0249CC
:10207000F4E700BF90110020BF31002010B5EFF34E
:1020800011844FF0200181F311880C4B1B69C01A99
:102090007F2810D90A4960F07F0301F8013BC0098D
:1020A0007F28F8D801F8010B06220548FFF7F2FC5B
:1020B00084F3118810BD0249F4E700BF901100209D
:1020C000BF31002010B50B46EFF311844FF0200113
:1020D00081F31188114A1269801A7F281BD910498F
:1020E00060F07F0201F8012BC0097F28F8D801F8C1
:1020F000010B7F2B06D963F07F0201F8012BDB096E
:102100007F2BF8D801F8013B07220548FFF7C2FCF6
:1021100084F3118810BD0249E9E700BF9011002047
:10212000BF31002038B51C4B1C6894B3024628B15F
:10213000002324696CB301339342FAD1EFF3118584
:102140004FF0200181F311887F2823D9134B60F0D1
:102150007F02DA71C20903F1080000F8012BA368BD
:102160007F2B06D963F07F0200F8012BDB097F2B60
:10217000F8D800F8013B80222168FFF749FB0146AF
:1021800016220748FFF786FC85F31188E36803B140
:10219000984738BD0248E0E79C320020B831002063
:1021A000BF31002038B5EFF311854FF0200181F3E6
:1021B0001188094C802201462046FFF729FB0123A4
:1021C0000370002343701A22811C2046FFF762FC33
:1021D00085F3118838BD00BFBF31002010B4134B08
:1021E0001A461B688342FBD351685418A0420AD098
:1021F00041684418A3420BD00360904218BF10609E
:102200005DF8044B70474068014451601046EFE7A9
:10221000074C2468A34206D05B68194441601368E8
:102220001B680360E9E70460E7E700BFB8820020AD
:10223000A0320020F8B5044600F0DEFC464B1B68D7
:10224000D3B1464B1E68264240F08180631E13F1D5
:102250000A0F7CD804F1080314F0070F05D023F00F
:10226000070208329A4272D913463D4A15689D42C8
:102270006DD33C4A146827E03B4A12F0070F1ED08A
:10228000D11D21F0070102F5A0435B1A0A4635482B
:102290000260002141601344083B23F007032E48ED
:1022A000036059601960991A516013602F4B1960CF
:1022B0002B4B1960294B4FF000421A60C1E74FF4D5
:1022C000A043E4E722460C466168994202D22168A5
:1022D0000029F7D120490968A14238D0176808378A
:1022E000216811606268D21A102A10D9E01810F023
:1022F000070F08D04FF0200383F31188BFF36F8FCF
:10230000BFF34F8FFEE742606360FFF767FF6268CD
:10231000AD1A13490D60154909688D423CBF134938
:102320000D601643666000232360114A1368013371
:10233000136000F00DFD17F0070F0BD04FF02003D6
:1023400083F31188BFF36F8FBFF34F8FFEE700F069
:10235000FFFC00273846F8BDA0320020A4820020F0
:10236000A8820020B8820020A4320020AC82002085
:10237000B0820020002833D010B5044650F8043C49
:10238000184A1268134208D14FF0200383F31188D2
:10239000BFF36F8FBFF34F8FFEE750F8081C41B1BA
:1023A0004FF0200383F31188BFF36F8FBFF34F8F7C
:1023B000FEE723EA020340F8043C00F01DFC0A4A51
:1023C00054F8043C11680B441360A4F10800FFF7B3
:1023D00005FF064A13680133136000F0B9FC10BD15
:1023E000704700BFA4820020A8820020B482002091
:1023F00082B0002301930D4B1B68B3F1FF3F08D05F
:102400004FF0200383F31188BFF36F8FBFF34F8F1B
:10241000FEE74FF0200383F31188BFF36F8FBFF304
:102420004F8F019B002BFCD002B0704700000020B2
:1024300008480068006880F308884FF0000080F3C7
:10244000148862B661B6BFF34F8FBFF36F8F00DFA2
:1024500000BF000008ED00E0DFF80C00016841F467
:10246000700101607047000088ED00E04FF080735C
:1024700040F8043C21F0010140F8081C054B40F8ED
:102480000C3C40F8202C6FF0020340F8243C443808
:10249000704700BFF12300000000000000000000B2
:1024A000074B19680868B0E8F04F80F30988BFF35C
:1024B0006F8F4FF0000080F311887047AFF30080FA
:1024C000C88200204FF0200383F31188BFF36F8F81
:1024D000BFF34F8F0A4A136801331360012B00D0FA
:1024E0007047084B1B6813F0FF0FF9D04FF0200323
:1024F00083F31188BFF36F8FBFF34F8FFEE700BFE9
:102500000000002004ED00E0094B1B6843B94FF0C8
:10251000200383F31188BFF36F8FBFF34F8FFEE764
:10252000013B034A13600BB983F31188704700BF66
:10253000000000200000000000000000000000007B
:10254000EFF30980BFF36F8F154B1A681EF0100F61
:1025500008BF20ED108A20E9F04F10602DE9090036
:102560004FF0200080F31188BFF34F8FBFF36F8FC0
:1025700000F0CCFC4FF0000080F3118809BC196812
:102580000868B0E8F04F1EF0100F08BFB0EC108ADA
:1025900080F30988BFF36F8F704700BFAFF30080EF
:1025A000C882002008B54FF0200383F31188BFF3E1
:1025B0006F8FBFF34F8FFFF7BDFC00F033FB48B1C7
:1025C000FFF7F0FC054B4FF080521A60002383F3B5
:1025D000118808BDFFF7D4FCF8E700BF04ED00E068
:1025E000084A0023136008490B60084B1B68084920
:1025F000A1FB03139B09013B06490B6007231360F2
:10260000704700BF10E000E018E000E0180801206B
:10261000D34D621014E000E03B4B1A683B4B9A42EA
:1026200039D0394B1A683A4B9A423DD010B582B036
:10263000384B1A78D2B20192FF221A701B78DBB2A3
:102640008DF803309DF8033003F02003324A1370F5
:10265000324B07221A609DF8033013F0800F11D01F
:1026600006229DF803305B00DBB28DF803309DF845
:1026700003101346013A11F0800FF2D1274A13607C
:10268000042B1AD04FF0200383F31188BFF36F8F10
:10269000BFF34F8FFEE74FF0200383F31188BFF3A2
:1026A0006F8FBFF34F8FFEE74FF0200383F3118846
:1026B000BFF36F8FBFF34F8FFEE7184B4FF480626D
:1026C0001A60019BDBB202F1E0221370144B1A680E
:1026D00042F460021A601A6842F060421A60FFF722
:1026E0007FFF00240F4B1C60FFF7B6FE0E4A1368F5
:1026F00043F040431360FFF79BFE00F007FCFFF739
:1027000077FE204602B010BD00ED00E071C20F411F
:1027100070C20F4100E400E0C0820020C4820020AB
:1027200020ED00E00000002034EF00E0EFF305832F
:102730000F2B0FD9104A9B5CDBB2104A12789A42D9
:1027400008D94FF0200383F31188BFF36F8FBFF3D5
:102750004F8FFEE70A4B1B6803F4E063094A1268D7
:10276000934208D94FF0200383F31188BFF36F8F92
:10277000BFF34F8FFEE77047F0E300E0C082002018
:102780000CED00E0C482002000F1080343604FF02C
:10279000FF328260C360036100230360704700233F
:1027A0000361704743684B609A688A605160996022
:1027B0000861036801330360704730B40D68B5F1F8
:1027C000FF3F11D000F108031C465B681A68AA425B
:1027D000FAD963684B6099608C6061600861036836
:1027E0000133036030BC70470469F2E70369416854
:1027F00082688A60416851605A68824204BF826878
:102800005A60002202611A68013A1A60186870471B
:10281000074B1B681B6823B9064B4FF0FF321A6049
:102820007047034B1B68DB681A68024B1A607047DD
:10283000CC820020B483002008B5154B1B68D3B1AF
:10284000FFF740FE134BDB68DD68281DFFF7CEFF66
:10285000114A1368013B13600D4C2368013B236050
:10286000FFF752FE286BFFF785FD2846FFF782FD34
:102870002368002BE4D1094B1B68012BDDD9084BE1
:102880004FF080521A60BFF34F8FBFF36F8FD4E7C2
:1028900078830020EC83002074830020D482002001
:1028A00004ED00E070B504460D46214B1E68214B37
:1028B00018680430FFF79AFF48B91E4B1A681E4982
:1028C0000B68D06A0122824023EA02030B60B4F154
:1028D000FF3F11D03444174B1B685C60A64214D9EB
:1028E000144C20680421FFF7EDFB144B1868216895
:1028F0000431FFF762FF70BD002DEBD00D4B19685E
:1029000004310F48FFF74EFFF5E70A4D2868042110
:10291000FFF7D8FB0B4B186829680431FFF74DFF10
:10292000094B1B68A34284BF074B1C60E3E700BF51
:1029300000840020C882002084830020D0820020F0
:10294000D8830020CC820020B48300202DE9F04FF2
:1029500083B007460D46984696003046FFF76AFC5E
:10296000002800F0CF8081465C20FFF763FC04461E
:10297000002800F09980C0F830903246A5214846E2
:102980000BF02CFDD4F83090002D00F093806A1EDF
:1029900004F133010E3512F9013F01F8013F0BB18B
:1029A000AA42F8D1002384F842300C9D072D28BF9D
:1029B0000725E562E5644FF0000BC4F850B004F160
:1029C000040A5046FFF7EBFE04F11800FFF7E7FE9C
:1029D0002461C5F10805A56164620422594604F129
:1029E00054000BF0FBFC0122594604F158000BF097
:1029F000F5FC043E4E444246394626F00700FFF7F8
:102A000035FD20600D9B03B11C60FFF75BFD424A62
:102A1000136801331360414B1B68002B4ED0404BB1
:102A20001B683BB93D4B1B68DA6AE36A9A429CBF5C
:102A30003A4B1C603B4A13680133136063642046C1
:102A4000FFF7D4FA236BE26A214651F8340BC01A1F
:102A500000902046FEF778FD2046FFF70FFBE06A66
:102A6000314A1168012383400B43136000EB80005F
:102A700051462E4B03EB8000FFF794FEFFF744FD19
:102A8000274B1B68002B42D0244B1B68DA6AE36A91
:102A90009A423ED2264B4FF080521A60BFF34F8FBE
:102AA000BFF36F8F01202FE04846FFF763FC4FF024
:102AB000FF3029E0002384F8343076E7174B1C60A0
:102AC0001368012BB6D1194D05F1A0062846FFF772
:102AD0005BFE1435AE42F9D1164E3046FFF754FE78
:102AE000154D2846FFF750FE1448FFF74DFE1448D9
:102AF000FFF74AFE1348FFF747FE134B1E60134BC8
:102B00001D6097E74FF0FF3003B0BDE8F08F012064
:102B1000FAE70120F8E700BF74830020C882002094
:102B2000D48300208083002084830020D48200206E
:102B300004ED00E0888300209C830020C0830020F7
:102B4000EC830020D8830020CC820020D08200209B
:102B500000B583B0204B0193002300934FF4C8725B
:102B60001E491F48FFF7F2FE012807D0B0F1FF3FD2
:102B700028D01C4B1B6803B05DF804FB4FF020030A
:102B800083F31188BFF36F8FBFF34F8F164B4FF056
:102B9000FF321A60154B01221A60154B00221A6091
:102BA000144B186805220D4934300BF0E7FB30B1A7
:102BB000104B1868FFF73EFAFFF72EFDD9E7FFF735
:102BC00003FAF9E74FF0200383F31188BFF36F8F07
:102BD000BFF34F8FFEE700BFB0830020D8E50000B1
:102BE0003928000004000020B4830020D483002092
:102BF00000840020C8820020024A13680133136059
:102C0000704700BF7C830020014B1868704700BFED
:102C10000084002008B5FFF789FD014B186808BD46
:102C200000840020F8B53F4B1B68002B73D13E4B4E
:102C30001E6801361E60C6B93C4B1B681B6843B159
:102C40004FF0200383F31188BFF36F8FBFF34F8FD3
:102C5000FEE7364A1168364B186810601960354A2D
:102C6000136801331360FFF7D3FD334B1B68B34286
:102C70003FD82E4B1B681B680BB1002426E00024B4
:102C80002D4B4FF0FF321A6034E02B4A136031E0D5
:102C90002846FFF7F3F9E86A284A116801238340C0
:102CA0000B43136000EB80003946254B03EB80009B
:102CB000FFF778FD234B1B68EA6ADB6A9A4228BF5C
:102CC00001241A4B1B681B68002BD9D0174B1B68BB
:102CD000DB68DD686B689E42D7D32F1D3846FFF74F
:102CE00085FDAB6A002BD3D005F11800FFF77EFD00
:102CF000CEE70024134B1B68DB6A03EB83039B00C6
:102D00000F4AD358022B28BF01240F4B1B68002BFE
:102D100018BF012404E00D4A136801331360002436
:102D20002046F8BD7C83002000840020CC82002057
:102D3000D0820020B8830020B48300208483002048
:102D4000D4820020C882002004840020BC8300209C
:102D500038B5384B1B6843B94FF0200383F3118813
:102D6000BFF36F8FBFF34F8FFEE7FFF7ABFB314B26
:102D70001A68013A1A601B68002B40D12E4B1B6861
:102D8000002B41D02D4B1B6823B941E02B4B1B6816
:102D9000002B3BD0294BDB68DC6804F11800FFF7FF
:102DA00025FD251D2846FFF721FD2046FFF766F982
:102DB000E06A234A1168012383400B43136000EB50
:102DC000800029461F4B03EB8000FFF7EBFC1E4BF6
:102DD0001B68E26ADB6A9A42D8D31C4B01221A6054
:102DE000D4E7013C07D0FFF71DFF0028F9D0174BAF
:102DF00001221A60F5E7164B00221A600CE000244D
:102E0000FFF782FB204638BD0024F9E7FFF700FDFD
:102E10000F4B1C68002CE6D10C4B1C68002CEFD02B
:102E20000C4B4FF080521A60BFF34F8FBFF36F8F80
:102E30000124E5E77C83002074830020C083002008
:102E400084830020D4820020C882002004840020D3
:102E5000BC83002004ED00E060B170B50C4605466F
:102E600089B94FF0200383F31188BFF36F8FBFF34D
:102E70004F8FFEE74FF0200383F31188BFF36F8F6E
:102E8000BFF34F8FFEE71E4B1B6843B14FF020038B
:102E900083F31188BFF36F8FBFF34F8FFEE7FFF708
:102EA000ABFE184B1E682B681C44B3420BD9A342DF
:102EB00002D82C60002413E0A64202D32C60002428
:102EC0000EE02C6004E0A34201D8A64215D22C608B
:102ED0002420FEF7D7FE0021A01BFFF7E3FC01240E
:102EE000FFF736FF38B9084B4FF080521A60BFF336
:102EF0004F8FBFF36F8F204670BD2C600024EFE72B
:102F00007C8300200084002004ED00E008B5334BF2
:102F10001B681BB1324B01221A6008BD304B0022E6
:102F20001A60304B1B681B6B1A68B2F1A53F03D1C6
:102F30005A68B2F1A53F1BD02A4B18681968343182
:102F4000FEF7BDF9284B1B68B3FA83F3DBB2C3F17C
:102F50001F0303EB8302920024498A588AB94FF079
:102F6000200383F31188BFF36F8FBFF34F8FFEE70A
:102F70009A68B2F1A53FDFD1DB68B3F1A53FDBD1A1
:102F8000E0E71A4A03EB830102EB810148684068DD
:102F9000486003EB830102EB81020832904214D0B7
:102FA00003EB8303114A02EB83035B68DA680D4B82
:102FB0001A60186805220E4934300BF0DFF950B161
:102FC000084B1868FFF736F8A7E74068074A02EB96
:102FD00081025060E4E7FEF7F7FF9EE77C83002064
:102FE00004840020C882002084830020D482002032
:102FF000D8E5000091B3F0B40B46011F013B9BB232
:1030000000EB83044FF6FF7051F8046F154DF3B2D7
:1030100083EA102335F8132082EA002083B270403F
:10302000C0F3072035F8102082EA032297B2C6F3D6
:103030000740C2F30722424035F8123083EA0723E3
:103040009AB2C3F3072383EA166335F8130080EAC4
:10305000022080B2A142D7D1F0BC70474FF6FF707A
:10306000704700BF6CE60000064B1B88834206D009
:10307000044B9B89834214BF02200120704700202B
:10308000704700BF0C0000207D4B1B78012B01D046
:10309000042070472DE9F047044606F077F9002830
:1030A00040F0EB802046FFF7DFFF0446012801D9FE
:1030B0000420E3E0054600EB4003724A02EB830381
:1030C00059886F4B02221A7000EB40036E4A02EBE4
:1030D000C3035B78012B14D071B1002105EB4503CC
:1030E000684A02EB83038AB25868FF248454013192
:1030F0005A888BB29A42F1D8614B01221A70032090
:10310000BCE04FEA9108DFF884A100238AF8003080
:1031100000EB40035C4A02EBC3039F68D7F80490BE
:1031200007F1080641463046FFF764FF00BF9AF8F2
:103130000030DBB2012B3DD01FFA89F981455ED00A
:1031400004EB4403504A02EBC3031F69B7F8049031
:1031500007F1080641463046FFF74CFF00BF8145A6
:1031600071D004EB4402474B03EB82035B880021E0
:103170006BB105EB4503434A02EB83038AB25868FF
:10318000FF26865401315A888BB29A42F1D804EB5B
:1031900044023D4B03EBC20300225A7004221A750D
:1031A00004EB4404374B03EB8404A3689B680122BF
:1031B0001A71A1E704EB4402334B03EBC203002274
:1031C0005A7003221A7504EB44042E4B03EB84035C
:1031D0009A689268012111715B88002B8CD00021C4
:1031E00005EB4503274A02EB83038AB25868FF24A4
:1031F000845401315A888BB29A42F1D87CE7B8F1F5
:10320000000F15D008F1FF339BB207F10C0000EB63
:103210008300316805EB45031A4A02EB83035A68C1
:1032200032446FF00703DB1BD1500436B042F0D1BB
:10323000154B04EB440203EBC2020121517013460B
:1032400000221A7558E7B8F1000FA0D008F1FF333B
:103250009BB207F10C0000EB8300316805EB4503DE
:10326000084A02EB83035A6832446FF00703DB1B02
:10327000D15004368642F0D189E70420BDE8F087BA
:10328000098400200C0000201884002048840020BD
:103290002DE9F04186B09C4B1B78022B0BD09B4B49
:1032A0001B682BB1013B994A1360002B00F0388357
:1032B00006B0BDE8F081964B1B78092B00F0978192
:1032C0000A2B40D0904B01221A70904B00221A60BA
:1032D00006F068F8E3E78F4B1B788F4A03EB430156
:1032E00002EB81039B689B7803EB430352F8212098
:1032F00002EB8301098952F8230006F019F806F061
:103300004BF8864B0E221A701DE005F0A1FE06F068
:103310003DF8012823D006F039F80028D2D106F074
:1033200047F8022827D17B4B1B7803EB43037A4AEB
:1033300002EB830399680B79012B14D0032300223D
:103340000A61052B06D1754B1B780D2BC3D00E2BB4
:10335000DBD00423033BDBB2012BA0D8B2E76F4BD9
:103360000E221A709BE76A4B09221A706B4B1222CD
:103370001A700623E3E706F01BF80328A2D1654B79
:103380001B7803EB4303644A02EB83039A681379C7
:10339000012B06D00423116909290AD801311161D2
:1033A000D8E75B4B092119705C4B12211970062379
:1033B000F1E70123D3705A4A137083E7594B1B88F6
:1033C000012B15D81A4603EB4301574800EBC10106
:1033D000C978012900F090825A1C92B2012A05D8BE
:1033E000C17E012900F0868202339AB24D4B1A80C9
:1033F0004E4B00221A7065E74D4B1888012800F2E9
:103400006A824C4B1B8803EB43034B4A02EB83035A
:103410009E68464B1F78034600EB4000424A02EB91
:10342000C00036E2434B1A8802EB4201424B03EBE9
:1034300081039B68996808780C7994B91C6800EB43
:10344000400504EB850402EB42023B4D05EB820292
:10345000528808328D682A446468944250D201220E
:103460000A719A68117901294AD1D178002936D197
:10347000D4681D79314901FB05F18C422FD201340A
:10348000D46099684A7801324A709A6854781979F8
:103490008C4224BF002151709A6851788842F0D044
:1034A000917099684A781B6802EB420253F8223007
:1034B00010338B601E4B00221A801E4B1B8803EBBF
:1034C00043031D4A02EB83039A68134B9A4213D0BD
:1034D0000F4B0A221A70114B0D221A70DFE60123DE
:1034E000D3700F4A1370114B1B78012B7FF4EAAE97
:1034F0000A4B13221A707AE0064B00221A70E7E793
:10350000064B10221A7072E00984002010840020FB
:1035100008000020498400202400002008840020A6
:103520004A8400200A840020188400200C84002093
:103530004C840020148400200C000020A086010090
:10354000B84B1E88B84906EB460401EB84039F681C
:10355000BA68D2F808805D88D3F804C031F8243006
:10356000ADF80030ADF8025041F23423ADF806302A
:103570001379002B4ED15DB10CF1FF33AB4A681EBD
:103580001CFA80F013F8011F02F8011F8342F9D1E1
:10359000A74CA90804F10800FFF72CFDADF80400C2
:1035A0000DF1FF33621E0DF1070413F8011F02F83D
:1035B000011FA342F9D19F4B06EB460203EBC20267
:1035C000D080C2F80C80BA6805F1080189B293680E
:1035D0000B449360964A404605F0C0FE05F0DCFEC1
:1035E000954B11221A700523052B7FF4B3AE924B35
:1035F0001B780F3B042B00F2918101A252F823F0BB
:10360000253400004135000057370000F933000031
:10361000BD330000012B05D0022B75D000231371A0
:103620000423E1E706EB4603824A02EBC3039B78DF
:10363000012B42D006EB46037E4A02EBC3039B8874
:10364000ADF804300DF1FF337C4A0DF1070013F89B
:10365000011F02F8011F8342F9D1ADB106EB460309
:10366000744A02EBC3039C68083400231959704A5A
:103670001A441172080A5072080C9072090ED17225
:1036800004339BB29D42F1D806EB4606694B03EB2F
:10369000C606C6F80C80BA6805F1080189B29368BD
:1036A0000B449360624A404605F058FE05F074FEF4
:1036B000614B11221A70052396E75DB10CF1FF33BF
:1036C0005A4A681E1CFA80F013F8011F02F8011F05
:1036D0008342F9D1564CA90804F10800FFF78AFC8F
:1036E000ADF804000DF1FF33621E0DF1070413F86D
:1036F000011F02F8011FA342F9D106EB46034D4A10
:1037000002EBC303D880BFE7D36802934C4B03930B
:1037100003F188330493A3F1443305930DF10703B8
:10372000464A0DF1170013F8011F02F8011F8342EA
:10373000F9D1BB685B78386803EB43033C4A10213E
:1037400050F8230005F00AFE05F026FE3A4B112240
:103750001A70052348E7334B1B8803EB4303324AB7
:1037600002EB83039C6805F073FC05F00FFE012853
:1037700003D1314B11221A7091E505F007FE0028A4
:103780007FF4A0AD05F014FE022869D1A268137978
:10379000D3B9244B1A88274902EB420301EBC30338
:1037A000D88898800020987001245C709C681C6107
:1037B000DC689C601875234B1B78012B7FF482AD6D
:1037C0001D4B13221A706AE5012B1BD0022B7FF4CC
:1037D00079AD1549174B03F130058868844215D03F
:1037E0000C311833AB42F8D100231371A3685A7817
:1037F0001A70144B1B78012B7FF464AD0E4B13220F
:103800001A704CE50C4B12221A7048E518465E7887
:10381000012E19D09E78012EE2D1C688868000261E
:10382000067514E0148400200C000020578400204A
:103830005084002018840020088400204F84002039
:10384000674523010C8400209E78012EE5D00026D8
:1038500086700126467086680661C6688660BFE786
:1038600005F0A6FD03287FF42DADA36801221A718F
:103870002E4B0F221A7012E54178012920D0817851
:1038800001291DD0013292B21830013399B20129B9
:103890001FD89AB21D4603EB4301254C54F8211062
:1038A0008E42EFD1012FE7D1C1780129E4D1214B1C
:1038B00005EB450103EBC101012088700023CB70AB
:1038C0001D4B1A8001321D4B1A80184B10221A70A2
:1038D0008DE61A4B1A80184B1B8803EB4303184ADA
:1038E00002EB83039B689B6802221A710F4B102224
:1038F0001A707CE6134601220E4902EB420001EBEE
:10390000C000012484700021C1700B4A138023443D
:103910000C4A1380054B0F221A7068E6042363E6F5
:10392000094B01221A7005F03DFDC1E40884002016
:103930001400002018840020148400204C840020EF
:103940000C0000200A840020098400202DE9F8439F
:1039500001F0BCFD974B996800220A7099688A7043
:1039600099680A7199680A709968CA601B79002B76
:1039700051D014461646174609E0BC4584BF2E4672
:10398000674601348B4B1A79E3B29A4225D9E5B2E6
:10399000884B1B6805EB450253F82230864900220C
:1039A0000A7086480260D3F800C0D3F804E0D3F868
:1039B0000880D3F80C9000BF02600B78DBB2012BBB
:1039C000DFD07F4B9E45DCD103F188339845D8D1B9
:1039D000A3F144339945D4D1CFE7E7B1754A936851
:1039E0001E7093685E709068C76006EB46031168AE
:1039F00001EB8304666851F8235010351279714B3E
:103A000003FB02F3BB4203D80123C3706E4A137059
:103A1000AE4260D8ABE06D4B9A68664B9A4208D0D4
:103A20006A4B5A69634B9A4208BF012440F0A28056
:103A300000E000240023664A13705E4A91680B710F
:103A400092689370634B0A221A70634B0D221A70AE
:103A5000624B02221A70FFF71BFC604B1B78022B93
:103A6000F9D0544B996800224A7099680A709A6894
:103A70000123D36002231371594A1480554A092146
:103A80001170554A10211170544A1370FFF700FC51
:103A9000524B1B78022BF9D046498A681378096883
:103AA00003EB430351F823301033936062E0414B42
:103AB0009B681A715BE000EB4003444A02EB83030E
:103AC0009A683C4B9A4235D03A4B9B6801221A7156
:103AD000A64251D92546384800220270374C226050
:103AE0002B68696800BF22600278D2B2012ADED05A
:103AF00098B21C0C27460A0C0B40B3F1FF3F36D09E
:103B000041F234239A422ED114F0070F2BD1A4F1A5
:103B100008039BB2B3F57E7F20D808342C44A6421C
:103B20001CD3FFF7A1FA0128C5D9224B9B680122BB
:103B30001A71CDE700EB4003244A02EB83035B8854
:103B4000BB42C1D1274B00EB400103EBC10201276F
:103B500003F83170916811619560B9E7154B9B6866
:103B600001221A7103E0134B9B6801221A71114B59
:103B70009B689D60002449E02546F8E704EB440378
:103B8000184A02EBC30303221A7504EB44030F4ADD
:103B900002EB83039B689B6801221A7177E0114A4C
:103BA00004EB440102EBC101012048708B8000232B
:103BB0000B7527E0240000204884002010E001401D
:103BC00067452301A08601004A8400200C000020E4
:103BD0004984002008000020088400200984002077
:103BE0001484002018840020534B04EB440203EBA0
:103BF000C20200219160116104EB440203EBC20395
:103C000002221A750134A4B2012C59D825464A491A
:103C100004EB440001EBC00300225A709A709A80B2
:103C2000DA80DA601A7511F83030012BDCD1434AA2
:103C300002EB80035988424F00263E70DFF8048172
:103C4000C8F800603C4A02EBC0039868D0F80490C2
:103C500089080830FFF7CEF900BFC8F800603B784C
:103C6000DBB2012B8AD01FFA89F3834297D004EB91
:103C70004403314A02EBC30304221A7504EB4403E4
:103C80002E4A02EB83039B689B6801221A7105EBA5
:103C90004503294A02EBC3031B7D033BDBB2012B27
:103CA000B0D805EB450302EBC3031B69002BA9D079
:103CB00005EB450102EBC1018B6000230B61A3E71B
:103CC0001E491D4C01F1180E28E0D4F808C00CF173
:103CD00008071C4A002010609B0810D0013B9BB2D3
:103CE0000CF10C0202EB8303686838446FF00702A2
:103CF000A2EB0C023E68865004379F42F4D1114B70
:103D000000221A6006E06868FF278754013290B2EB
:103D10008342F8D80C311834714508D00D464B88D1
:103D20006278012AD1D00022002BECD1F2E7064BB9
:103D300001221A70BDE8F883188400200C000020CE
:103D40004884002010E0014009840020014B1878CD
:103D5000704700BF0984002000B583B00DF1070152
:103D6000164801F08DFB18B19DF80730022B02D0E8
:103D700003B05DF804FB124B986B124B19790029C4
:103D8000F6D01A68131D0139C9B201EB4101103296
:103D900002EB810102E00C338B42E9D053F8042C92
:103DA0008242F8D81A688242F5D9074B01221A706C
:103DB000064A136843F080031360D9E7288D00207A
:103DC00000ED00E0240000204884002010E00140C5
:103DD00008B5FFF7C1FF08BD104A114B9A420AD23D
:103DE000013B9B1A23F0030304331344002142F8E0
:103DF000041B9A42FAD10B4A0B4B9A420CD20B4944
:103E0000013B9B1A23F003030433134451F8040BC2
:103E100042F8040B9A42F9D1704700BFC00C002051
:103E20001C08012000000020C00C002084010100BB
:103E3000204B214A1A60214B1B6813F4006FFAD003
:103E40001E4B42F620121A6008334FF470421A607B
:103E50001A4B1B6813F4806FFAD0194B164A1A607C
:103E6000184B1B6813F4006FFAD0164B42F6201261
:103E70001A6008334FF470421A60124B1B6813F437
:103E8000806FFAD0104B4FF080421A6002F5743206
:103E90004FF0FF31116000221A600C4AD2F88830CE
:103EA00043F47003C2F88830BFF34F8FBFF36F8FB6
:103EB000F746704704200540821918080020054085
:103EC0000430054000300540F450064000ED00E0AD
:103ED00008B50278104B53F822301A6812F0080F18
:103EE0001CBF08221A601A6812F0040F1CBF0422BB
:103EF0001A601A6812F0020F1CBF02221A601A68B8
:103F000012F4807F1CBF4FF480721A6083680BB17B
:103F10004169984708BD00BF84E80000F0B402780A
:103F2000724B53F822508B7A032B19BF8C790226DF
:103F3000012400264A7A0B68002B00F0AD80D340A4
:103F40006B4AA2FB03239B0C03EB83030133FF2B80
:103F500028BFFF23022B38BF02231022AA600022B1
:103F6000AA60CF790A7AD20742EA0752CF7ABF070E
:103F700007F080473A438F7ABF0507F440073A437A
:103F80004F79BF0207F480673A430F793F0207F485
:103F900040773A4342EA0642E40204F46054224382
:103FA000EA604A7B43EA82438A7B120402F440328D
:103FB00013430A7B120302F48052134343F08053ED
:103FC0002B612B6943F400532B612B6913F4804F51
:103FD00006D1484A2B6913F4804F01D1013AF9D137
:103FE0002B6913F4804F08D02A694B7A1B0203F423
:103FF000407322F4407213432B612B6923F4005366
:104000002B612B6913F4804F06D03A4A2B6913F4C5
:10401000804F01D0013AF9D101F10F07002217F8C2
:10402000013B023BDCB2D3B2032BFCD86B694FEAF5
:10403000C20CFF2606FA0CF623EA060604FA0CF375
:1040400033436B610132042AE9D1CB7C2A4A954281
:1040500024D02A4A954234D0CC7DC4714D7D45711F
:104060008B7D83710A6A02618A698260CA69C26053
:104070004A6A426101781D4A52F82110CA68C2F3A7
:104080008152032A4FEA031343EAC41318BF43EAD9
:10409000C5034B60F0BC7047C0235EE702F5504299
:1040A00094691B0103F0300324F03004234393612F
:1040B00094690B7D03F0010324F001042343936111
:1040C000CAE702F5043294691B0303F4405324F455
:1040D00040542343936194690B7D1B0203F4807366
:1040E00024F4807423439361B6E700BF84E80000A2
:1040F00083DE1B43C0E1E40000B0034000700240D7
:10410000F0B40478334B53F82450EB680271C3F3D6
:104110008153032B2FD00024EAB105EB8400066DF8
:104120004B1C13F814301B0203F4407326F4407642
:1041300033430365036D23F040030365066D11F8F7
:10414000143003F03F0326F03F0633430365013488
:10415000E3B29A42E1D8EB68013A120602F0F85253
:1041600023F0F8531343EB602B6923F0F8531A4301
:104170002A61F0BC704702B30026331DDBB205EBA9
:1041800083031F6D4C1C14F81640240204F4407481
:1041900027F440773C431C651C6D24F040041C65EB
:1041A0001F6D11F8164004F03F0427F03F073C4311
:1041B0001C650136F3B29342DFD303790333DBB2DC
:1041C00005EB83052B6D427923F0400343EA82130C
:1041D0002B65CEE784E8000030B593B0044608783C
:1041E000384B53F820501378002B65D053684B613F
:1041F00093688B6053782370EB68C3F38153032B70
:1042000046D005F14C030193536802930B799B0050
:1042100005930123ADF8183000238DF81D300120DF
:104220008DF81E0002238DF81B308DF81C3093781A
:104230008DF81A3000238DF81F308DF82030099347
:104240008DF828008DF829008DF82A308DF82B3054
:104250000B908DF830300D900B783BBB2A238DF8F6
:104260003930D3788DF83A3000238DF84030164A33
:104270000F9211930391EB6843F00103EB6020462A
:1042800000F046FD01A9204600F02AF913B030BD28
:1042900005F1E003019353680293042305930B791E
:1042A000ADF8183001238DF81D30B8E7012B04BF9D
:1042B0002B238DF83930D4E7EB6823F00103EB6052
:1042C000E4E700BF84E80000D13E000002780D4B17
:1042D00053F8223001229A601A6812F0010F0CD1B3
:1042E000094A013A196811F0010F03D1002AF8D1E7
:1042F000022070470AB90220704701221A6000208C
:10430000704700BF84E80000C0E1E4000278034B7E
:1043100053F8223004229A60704700BF84E80000FE
:1043200008B5074A136823F001031360436803B11B
:104330009847034A136843F00103136008BD00BFA8
:1043400000000440084A136843F00543136042F23A
:104350001173054A1268002A03DA013BF9D10120E2
:1043600070470020704700BF002008E008B5064BEA
:1043700000221A60FFF7E6FF18B9034B01221A600A
:1043800008BD0120FCE700BF002008E038B5054665
:10439000002402E00134102C17D0E2B20B4BD96A92
:1043A0000123A3400B40E340F4D002F00F02074B7F
:1043B0009A7705F1080353F82430002BEAD005F171
:1043C000480252F824009847E4E738BD00800040D6
:1043D00008B5037803F00F03034AD377C3680BB122
:1043E0008068984708BD00BF0080004030B4294B6A
:1043F0000021196040221A769A761A779A77DA772E
:104400009964196559659965D965C8B280F0030248
:10441000204B1A4482F800014D0105F1804202F55B
:10442000004402F510400022026041F204002252D2
:104430002B4441F20C001A5041F210001A5041F284
:1044400014001A5241F218001A5041F2060022528A
:1044500041F208001A501A501A5041F21C001A5228
:1044600041F21E041A5341F216001A521A531A52FC
:1044700001311029C9D11346074AD15C01F040012E
:10448000D154D15C01F0BF01D1540133102BF3D1D1
:1044900030BC7047008000400010024010B50C4650
:1044A000FF23037043708370C370FFF79FFF0B4AB5
:1044B0001368217823F0100343EA01131360116895
:1044C00063789B0003F0040321F004010B431360A5
:1044D000136843F08003136010BD00BF00800040EC
:1044E0002DE9F04F85B005784B7ECA7D012B36D083
:1044F000022B3BD04FF0000C8B7E0A7E012B49D063
:10450000022B4ED04FF0000E91F82760002E5CD1A8
:1045100091F82C80B8F1000F7AD14646002214465B
:10452000019291F82470002F40F0AE800023029396
:1045300091F82570002F00F0DF800F7F002F40F0F2
:10454000C78091F818900F6927FA09F70EFB07F753
:10455000B1F8149009FB07F77B420393CEE04FF0CC
:10456000010C0CFA02FC1FFA8CFCC5E7042A0ED0E1
:1045700006D8032A34BF4FF0040C4FF0000CBBE701
:10458000052A14BF4FF0000C4FF0200CB4E74FF099
:10459000100CB1E74FF0010E0EFA02FE1FFA8EFE6C
:1045A000B2E7042A0ED006D8032A34BF4FF0040E17
:1045B0004FF0000EA8E7052A14BF4FF0000E4FF091
:1045C000200EA1E74FF0100E9EE78A6A012A1CD93F
:1045D00000240134E4B227460123A3409A42F8D8CC
:1045E0004FF0FF3303FA07F7BA4314BF4FF0010847
:1045F0004FF0000891F82C7067B9002E40F07C83D2
:10460000002A3ED1B04601928BE700242746E7E717
:10461000B04600240F6B012F30D900220132D2B2F4
:104620009146012393409F42F8D84FF0FF3303FA9D
:1046300009F937EA090314BF012700271EB18B6A65
:104640006345C0F041830B6B7345C0F03983B8F10B
:10465000000F02D1002F00F02E83D0F804A00AF141
:10466000FF36002316F8019FB9F1FF0F00F03C83DD
:104670000133DBB2042BF5D10620DCE200229146A7
:10468000D3E737460022E8E7CF7E6FB991F817905D
:104690000F6927FA09F70CFB07F7B1F8149009FB2B
:1046A00007F77B42029343E7B1F814A091F8179003
:1046B0000F6927FA09F90CFB09F90AFB09F9C9F195
:1046C00000090AF1FF3A0F6A07FB1A9302932FE7DA
:1046D000B1F8149091F818A00F6927FA0AF70EFBA9
:1046E00007F709FB07F7C7F1000A09F1FF390F6A5D
:1046F00007FB19A3039301E0002303934FEA451A34
:104700000AF1804909F5004709F510490B68C9F815
:104710000030DFF83C94CA4441F2100B4B684AF871
:104720000B3091F816A085F0030BD94489F800A14D
:1047300091F82790B9F1000F00F0F08091F82C90DB
:10474000B9F1000F32D041F2060937F809B01FFA6B
:104750008BFB91F817A04FEA0A2A0AF4E06A2BF4BF
:10476000E06B4AEA0B0A27F809A037F809A0CAF358
:104770000A0A4AEAC424A4B227F8094037F809A073
:104780001FFA8AFA0C7E04F007042AF0070A44EAAA
:104790000A0427F8094037F80940A4B2D200D2B27F
:1047A00024F0F804224327F809202BE041F2060206
:1047B00037F802A01FFA8AFA91F817904FEA0929F0
:1047C00009F4E0692AF4E06A49EA0A0927F8029044
:1047D00037F80290C9F30A0949EAC424A4B2BC52CA
:1047E00037F802901FFA89F90C7E04F0070429F0CB
:1047F000070944EA0904BC52BC5A24F0F804240412
:10480000240CBC52B8F1000F00F068828A6AB2FB37
:10481000FCF4013C14FB0CF41FFA84F9002E00F0A8
:10482000D8800A6BB2FBFEF4013C14FB0EF4A4B278
:1048300044EA094AC64A019B03F1140942F829A037
:10484000D2F848A04FEA4509032404FA09F42AEAF9
:10485000040446EA480606FA09F944EA090494649D
:1048600002EB451241F21C04165BB6B21B0303F4C3
:10487000405326F4405633431353B54C04EB4512D2
:1048800041F21C06935B9BB291F8268023F008034B
:1048900043EAC803935341F2040327F803C041F2EB
:1048A000140322F803E0236813F0800F00F0A980BE
:1048B000CC7E0A7F002C40F08E80002A40F08B8056
:1048C000A34B1B6813F0800F0AD06B0103F18043E8
:1048D00003F5004341F208041B59002BC0F2F68196
:1048E0009B4B1B6813F0800F00F08B806B0103F172
:1048F000804303F5004341F208041B5913F0804F35
:1049000000F0D5816B0103F1804303F5004341F2D0
:1049100008041A59C2F309021A5172E091F82C40A6
:104920008CB341F2060437F804A01FFA8AFA91F812
:1049300017904FEA092909F4E0692AF4E06A49EA84
:104940000A0927F8049037F80490C9F30A0927F8F0
:10495000049037F804A01FFA8AFA91F8189009F029
:1049600007092AF0070A49EA0A0927F8049037F8E4
:1049700004901FFA89F9D200D2B229F0F80942EA6C
:1049800009023A533EE741F2060437F804901FFA51
:1049900089F9CA7D120202F4E06229F4E06942EA70
:1049A00009023A533A5BC2F30A023A5337F80490C9
:1049B0001FFA89F90A7E02F0070229F0070942EA84
:1049C00009023A533A5B22F0F8021204120C3A53ED
:1049D00018E700242CE76E0106F1804606F5004634
:1049E00041F2080756F807C0DFF868E10B6A0EEAE3
:1049F0008323920742EAC4742343CCF3090213438E
:104A0000F3510C69524A126812F0800F28D0504BB3
:104A10001B6813F0800F65D14D4B1B6813F0800F9E
:104A200071D000266B0103F1804303F5004341F28E
:104A300008029B5813F0804F01D1002E63D06A0109
:104A400002F1804202F5004241F20806935923F434
:104A50007F7323F00303C4F309042343935107E056
:104A60006A0102F1804202F5004241F20803D4508B
:104A70008B8A012B70D991F83430002B6CD06C01EB
:104A800004F1804404F5004441F21E06A25B6B026F
:104A900003F4F05346F2FF1C0CEA02021A4342F4FC
:104AA0000042A25341F21607E25B0CEA02021343F2
:104AB00043F40043E3538B8AA25B12F4004F31D0DE
:104AC0006C0104F1804404F50044A25BC3F30803C5
:104AD00002F47E421A43A253E25B02F47E42134385
:104AE000E35364E06B0103F1804303F5004341F2BB
:104AF00008029B58002B8FDA154B1B6813F0800FB0
:104B00009DD001268EE76A0102F1804202F5004243
:104B100041F20807D65906F0404624F04044344399
:104B2000D451A5E76C0104F1804404F5004441F23E
:104B30001E06A25BC3F30E0302F400421A43A25303
:104B400041F21606A25B02F400421343A3532EE087
:104B50000080004000FCFF3F6B0103F1804303F540
:104B6000004341F216041A5BC2F30E021A5341F2DB
:104B70001E041A5BC2F30E021A538A8A1B5B13F4DB
:104B8000004F5BD06C0104F1804404F5004441F215
:104B90001E06A35BC2F3080203F47E431343A35330
:104BA00041F21606A35B03F47E431A43A2536B0142
:104BB00003F1804303F5004341F20C02029C9C5038
:104BC00041F21802039C9C5091F83520002A4BD1E9
:104BD00002F1804202F50432535D03F04003535565
:104BE00091F83630002B4AD08B6BC3608B688360A2
:104BF00003785B0103F1804303F5004341F21C0499
:104C00001A5B92B242F002021A5391F83C30002B28
:104C100046D043680A6C047803EB84039A604368C7
:104C2000CA68017803EB81039A64037803F00F03E9
:104C3000354A5376002005B0BDE8F08F6C0104F1D1
:104C4000804404F5004441F21E06A35BC2F30E0249
:104C500003F400431343A35341F21606A35B03F48A
:104C600000431A43A253A2E7284C635D03F04003BC
:104C700002F03F02134343F080036355B0E703782B
:104C80005B0103F1804303F5004341F21C041A5B0E
:104C900022F002021204120C1A530023C360B4E77C
:104CA0004368027803EB820300209860C3E7002A80
:104CB0007FF428AEA5E63E46B8460023019330E4D3
:104CC0000420B8E70620B6E70420B4E70E4B1B68C3
:104CD00013F0800F3FF416AE012207E6002E3FF4DA
:104CE000CCAD4FF000099CE50193042BEAD0019B69
:104CF0000AF803503E4614E48B6A634501D204204F
:104D000099E70022A3E400BF0080004000100240A9
:104D100030B4002302E00133042B0DD04268D45C90
:104D200001788C42F7D1FF21D15403F114023949A3
:104D3000002441F82240EEE7364B9A6C01784C0093
:104D40000321A14022EA01029A64027802F00F02D4
:104D50001A76027802F00F029A76027802F00F02B9
:104D60001A77027802F00F029A77027802F00F02A7
:104D7000DA7701788031490100225A500178803178
:104D800003EB41118A80017803EB411141F20C04DD
:104D90000A51017803EB411141F210040A510178E4
:104DA00003EB411141F214040A53017803EB411162
:104DB00041F218040A510178803103EB4111CA8095
:104DC000047803EB441441F208016250047803EBC9
:104DD00044146250047803EB44146250017803EBEE
:104DE000411141F21C040A53017803EB411141F2D5
:104DF0001E054A53017803EB411141F216040A5390
:104E0000017803EB41114A53017803EB41131A5324
:104E100030BC7047008000400378054AD25C12F035
:104E20003F0F03F00F03034A0CBF5377D37670474D
:104E3000001002400080004010B4114C54F8204093
:104E4000206900290CBF00214FF400710AB141F420
:104E50008071012B0CD0014341F00801216140F227
:104E60000F31014041F0080121615DF8044B7047AA
:104E7000014341F00A01216108232361F5E700BFE6
:104E80008CE80000054B53F820309A6921F0F001BE
:104E90008904890C11439961704700BF8CE80000B8
:104EA000F0B40278214B53F82230DB6DC3F3034793
:104EB00013F4702F28D1F0BC704704250021C38A59
:104EC0009BB2046CCA0026FA02F2E254C38A013390
:104ED0009BB2C3824B1CD9B2A942F0D3C38B15FA43
:104EE00083F2418A92FBF1F301FB13239BB2C3834C
:104EF000438B5D1BADB24583438B9BB2002BDAD055
:104F0000013F17F0FF07D6D00278084B53F8223044
:104F10005E6F458AC38B9BB204339D42CDDCC38B4D
:104F2000ED1AADB2002DC9D1D8E700BF8CE8000062
:104F30000278344B53F82230DB6D03F00F03027913
:104F4000D21A038B12F0FF025BD09BB2002B58D019
:104F500070B431E0038B9BB2012B30D1036D23F48D
:104F600080130178274A52F8212013660365002335
:104F7000038370BC7047858AADB25E5D838A01335E
:104F80009BB28382858B14FA85F595FBF1F301FBC7
:104F9000135189B2818301781A4B53F821305E6630
:104FA000038B1B1B9BB20383038B9BB2013A12F052
:104FB000FF02DED0002BDCD0437B012BCAD0418A1C
:104FC000838B9BB2CB1A042BDDBF838BCB1A9CB295
:104FD0000424C36B9BB10129CDD0022907D0858A57
:104FE000ADB25E59838A04339BB28382CAE7858A55
:104FF000ADB25E5B838A02339BB28382C2E7002636
:10500000C9E770478CE8000010B504460023C3735D
:10501000037A012B25D002781C4B53F82220936988
:1050200023F003039361194A237852F8230083691C
:1050300023F4E0538361237852F823304FF4E05295
:105040005A61012914D0E36A13B100212046984720
:10505000A3792BB1A36B0021204698470023A371AD
:1050600010BD0278094B53F822300022DA61DAE7EA
:10507000E36A0BB120469847A379002BF0D0A36BCD
:105080000121204698470023A371E9E78CE800003E
:1050900010B50446FFF7B8FF00230122114620781F
:1050A000FFF7CAFE0023012211462078FFF7C4FE55
:1050B00010BD000070B504460E4602782B4B53F825
:1050C00022305D6915F4006F07D0C36B2BB101234B
:1050D0008373FFF7DDFF09201CE015F4805F09D022
:1050E000236C3BB10223A37331462046FFF7D0FF68
:1050F0000A200FE015F0020F02D0638B9BB253B968
:1051000015F0010F02D0238B9BB243B9238B9BB2C6
:105110004BB1082070BD2046FFF7C2FEF0E72046E5
:10512000FFF706FFF2E72278104B53F8222093692D
:1051300023F0010393614FF480612078FFF7A2FE12
:10514000638B9BB27BB92278084B53F822305B69A2
:1051500013F4806F01D10820DCE731462046FFF7C9
:1051600053FF0B20D6E70820D4E700BF8CE80000EF
:1051700010B504460023C373037A012B31D00278A3
:10518000224B53F82220936923F0030393611F4AB3
:10519000237852F82300836923F4C0538361237872
:1051A00052F823304FF4C0525A61012920D0E36AEB
:1051B00013B1002120469847A3792BB1A36B00219E
:1051C000204698470023A37100230122114620782E
:1051D000FFF732FE0023012211462078FFF72CFE54
:1051E00010BD0278094B53F822300022DA61CEE775
:1051F000E36A0BB120469847A379002BE4D0A36B58
:105200000121204698470023A371DDE78CE80000C8
:1052100070B504460E460278334B53F822305D6970
:1052200015F4006F07D0C36B2BB101238373FFF715
:105230009FFF092024E015F4805F09D0236C3BB167
:105240000223A37331462046FFF792FF0A2017E09E
:1052500015F0020F02D0638B9BB293B915F0010FCA
:1052600002D0238B9BB283B9238B9BB28BB1638B10
:105270009BB2BBB1228B638B13439BB2DBB1082083
:1052800070BD2046FFF70CFEE8E72046FFF750FE12
:10529000EAE72278144B53F82220936923F00103A4
:1052A0009361E4E72278104B53F82220936923F0AE
:1052B00002039361DEE722780B4B53F822209369B7
:1052C00023F4C0539361E36A13B1314620469847F3
:1052D000A3792BB1A36B3146204698470023A371D5
:1052E0000023E3730B20CBE78CE8000008B50278BD
:1052F000074B53F822305B6A13F0010F03D10121F1
:10530000FFF786FF08BD0121FFF7D4FEFAE700BFD3
:105310008CE80000642300BF013BFCD170470368A8
:105320004268002101619918B1F5801F0DD8C3F3BF
:105330000A0121B9C2F30A0222B9002070470361B1
:1053400004207047036105207047B3F1887F10D3B4
:10535000B1F1897F0DD8C3F30A0121B9C2F30A0262
:1053600022B90020704703610420704703610520C3
:1053700070470361032070470368426800210161A0
:105380009918B1F5801F0DD813F0070F04D112F052
:10539000070F04D1002070470361042070470361A8
:1053A00005207047B3F1887F10D3B1F1897F0DD804
:1053B00013F0070F04D112F0070F04D1002070473B
:1053C00003610420704703610520704703610320D7
:1053D00070470000B0F5801F25D8C30C10F4802F53
:1053E0000ED151B9C0F30240012202FA00F0C043CD
:1053F0009B00174AD050002070474FF0FF30F7E76E
:1054000071B9C0F31200A0F58020400B012202FA0E
:1054100000F0C043D0330F4A42F823000020704709
:105420004FF0FF30F6E7A0F18870B0F5003F0DD2E5
:1054300049B9400B012303FA00F0C043054BC3F800
:105440004803002070474FF0FF30F7E70420704713
:105450005CE3014000E00140B0F5801F04D8C30CBC
:105460000B60486000207047A0F18873B3F5003FDF
:1054700004D202230B60486000207047042070476C
:1054800010B50C46104B1B6B20209847202809D0E4
:105490000D4B1B6B1020984710280CD00023237055
:1054A000012010BD01232370074B5B6B9847B0FAB6
:1054B00080F04009F5E702232370034B5B6B9847AC
:1054C000B0FA80F04009ECE700D08001024A136C8A
:1054D00043F00103136470470080044002780E4BD0
:1054E00053F822301A6B12F0400F13D000B583B07E
:1054F00000228DF8042001218DF805108DF8072079
:105500008DF8062040221A63C36A01A9984703B0A8
:105510005DF804FB704700BFB8E8000002780E4B4E
:1055200053F822301A6B12F0800F13D000B583B0FD
:1055300000228DF804208DF805208DF80720012227
:105540008DF8062080221A63C36A01A9984703B028
:105550005DF804FB704700BFB8E8000030B583B0C9
:1055600004460278144B53F8225001238DF804307E
:1055700000238DF80530D5F8142CD30F8DF80730A3
:10558000D5F8143CC3F380738DF80630002A06DA90
:105590004FF00043C5F8143CC36A01A998479DF831
:1055A00006303BB14FF08043C5F8143CE36A01A9D3
:1055B0002046984703B030BDB8E8000030B587B04A
:1055C00002780F4B53F82240256AE3690D4A2A40BE
:1055D000059202B12262C3F3072202921A0E0192CF
:1055E000DAB20492C3F30743039315F0060F03D016
:1055F00011B1836A01A99847002007B030BD00BFF0
:10560000B8E8000036FF3BDC2DE9F04F85B00246DC
:105610000B7E002B40F0C681082383711078AA4BC3
:1056200053F820400B7E002B40F0C0814F68013FB3
:10563000C7F309074B695D1EAD0505F0FE550B6903
:10564000013B1B0303F4FE231D43CB68886803441E
:10565000013BDBB21D430026B446236843F0004300
:105660002360002363600B78012B63680CBF43F455
:10567000005323F400536360236823F00043236046
:10568000236843F0A043236042F21073206810F0B7
:10569000807F40F0CD81013BB3F1FF3FF6D18B4BD2
:1056A00063630B785B0303F400534878C00000F099
:1056B0000800034391F83100800100F040000343EB
:1056C000087E002840F0BA81C4F8F07BC4F8F45B8F
:1056D000636091F8303063B10B6A486A1844CB6953
:1056E00000FB03331B0403F4FE0343F00043C4F840
:1056F000FC3B1578744B53F8253000200290744819
:10570000465DB7000298B0EB860F0FD2029803EB0C
:1057100080008030039003984FF0000CC0F800C068
:105720000298013002900298B842EFD30020029014
:105730000298B0420ED2029803EB800000F5086098
:1057400003900398002707600298013002900298A6
:10575000B042F0D300200290029817280DD802988A
:1057600000F528601844039003980026066002980C
:105770000430029002981728F1D900200290029874
:105780000F280DD8029800F52A601844039003985A
:105790000026066002980430029002980F28F1D982
:1057A0000020029002980F280DD8029800F52B6077
:1057B0001844039003980026066002980430029073
:1057C00002980F28F1D90020029002980F280DD8D6
:1057D000029800F52C601844039003980026066098
:1057E00002980430029002980F28F1D9002002900C
:1057F00002980F280DD8029800F52D6018440390E8
:1058000003980026066002980430029002980F2840
:10581000F1D93048405D002800F002850020029058
:10582000029847280DD8029800F628701844039073
:1058300003980026066002980430029002984728D8
:10584000F1D900200290029847280DD8029800F55F
:10585000776018440390039800260660029804308D
:10586000029002984728F1D9002002900298472818
:105870000DD8029800F6B8701844039003980026DB
:10588000066002980430029002984728F1D9124825
:10589000405D002838D00026029600EB8000000111
:1058A0000746029EB04219D9029800F500501844EC
:1058B0000390039800260660029804300290029834
:1058C0008742F1D80AE000BFB8E800000030A0101D
:1058D000B4E80000A8E80000A0E800000020029062
:1058E000B448475D029887420ED9029803EB8000C6
:1058F00000F540500390039800260660029801309E
:10590000029002988742F0D8AB48405DB0B10025C4
:1059100002954600029DB5EB400F0FD2029803EBB3
:10592000800000F5D05010300390039800250560EA
:105930000298013002900298B042EFD30B7EDB0256
:1059400003F4006343F0A14343F4043391F83400BB
:1059500050B191F83500002879D191F83800C00392
:1059600080B2034343F00053236000230193137874
:10597000924850F823A091F83400002800F0DB8012
:1059800091F83500002868D08D48C35C002B00F0EA
:10599000D28091F84B30002B00F07A8100231F4613
:1059A0001846E7E091F85030837137E6DB0791F84D
:1059B0005000082836D0102837D020280CBF4FF4CC
:1059C000003C4FF4403C43EA0C0CCF697B1E7D4FFA
:1059D00007EA03474B68013BC3F309031F434B69C5
:1059E0005D1EAD0505F0FE550B69013B1B0303F47D
:1059F000FE231D43CB6888680344013BDBB21D4393
:105A0000CB6A5E1EB60506F070768B6A013B1B03FF
:105A10009BB21E434B6A086A0344013B03F01F0319
:105A20001E431AE64FF0000CCDE74FF4803CCAE766
:105A3000002B7FF434AE4023019398E7C4F800CCE8
:105A4000C4F8F07BC4F8F45BC4F8F86B40E691F856
:105A50004400C00380B2034386E70E6C91F83C70AB
:105A600000235371DAF8005045F00055CAF8005091
:105A700055484578AF4205D0013303300D2BF8D19E
:105A80002020C4E0002F41D030464FF0000C664685
:105A90001DE045686D0045F080450AEB8608C8F8B2
:105AA000E05003EB4309484D4D44AD78B54285685D
:105AB0004FEA450545F080458CBFC8F88058CAF8C4
:105AC00048500CF1020C01360C30B7421AD0864611
:105AD0000578012DDDD04568ED040AEB8608C8F88D
